{"abi":[{"type":"constructor","inputs":[],"stateMutability":"payable"},{"type":"function","name":"allocatedTokens","inputs":[],"outputs":[{"name":"","type":"uint256","internalType":"uint256"}],"stateMutability":"view"},{"type":"function","name":"claim","inputs":[],"outputs":[],"stateMutability":"nonpayable"},{"type":"function","name":"claimableAmount","inputs":[{"name":"_claimer","type":"address","internalType":"address"}],"outputs":[{"name":"","type":"uint256","internalType":"uint256"}],"stateMutability":"view"},{"type":"function","name":"getInitData","inputs":[{"name":"_token","type":"address","internalType":"address"},{"name":"_owner","type":"address","internalType":"address"}],"outputs":[{"name":"","type":"bytes","internalType":"bytes"}],"stateMutability":"pure"},{"type":"function","name":"initialize","inputs":[{"name":"_initData","type":"bytes","internalType":"bytes"}],"outputs":[{"name":"","type":"bool","internalType":"bool"}],"stateMutability":"nonpayable"},{"type":"function","name":"owner","inputs":[],"outputs":[{"name":"","type":"address","internalType":"address"}],"stateMutability":"view"},{"type":"function","name":"renounceOwnership","inputs":[],"outputs":[],"stateMutability":"nonpayable"},{"type":"function","name":"startVesting","inputs":[{"name":"_beneficiary","type":"address","internalType":"address"},{"name":"_totalAmount","type":"uint256","internalType":"uint256"},{"name":"_startTime","type":"uint256","internalType":"uint256"},{"name":"_cliff","type":"uint256","internalType":"uint256"},{"name":"_duration","type":"uint256","internalType":"uint256"},{"name":"_claimCooldown","type":"uint256","internalType":"uint256"},{"name":"_minClaimAmount","type":"uint256","internalType":"uint256"}],"outputs":[],"stateMutability":"nonpayable"},{"type":"function","name":"token","inputs":[],"outputs":[{"name":"","type":"address","internalType":"contract IERC20"}],"stateMutability":"view"},{"type":"function","name":"transferOwnership","inputs":[{"name":"newOwner","type":"address","internalType":"address"}],"outputs":[],"stateMutability":"nonpayable"},{"type":"function","name":"vestings","inputs":[{"name":"","type":"address","internalType":"address"}],"outputs":[{"name":"totalAmount","type":"uint256","internalType":"uint256"},{"name":"startTime","type":"uint256","internalType":"uint256"},{"name":"cliff","type":"uint256","internalType":"uint256"},{"name":"duration","type":"uint256","internalType":"uint256"},{"name":"claimed","type":"uint256","internalType":"uint256"},{"name":"lastClaimTime","type":"uint256","internalType":"uint256"},{"name":"claimCooldown","type":"uint256","internalType":"uint256"},{"name":"minClaimAmount","type":"uint256","internalType":"uint256"}],"stateMutability":"view"},{"type":"function","name":"withdrawUnallocated","inputs":[{"name":"_to","type":"address","internalType":"address"}],"outputs":[],"stateMutability":"nonpayable"},{"type":"event","name":"Claim","inputs":[{"name":"beneficiary","type":"address","indexed":false,"internalType":"address"},{"name":"amount","type":"uint256","indexed":false,"internalType":"uint256"},{"name":"timestamp","type":"uint256","indexed":false,"internalType":"uint256"}],"anonymous":false},{"type":"event","name":"OwnershipTransferred","inputs":[{"name":"previousOwner","type":"address","indexed":true,"internalType":"address"},{"name":"newOwner","type":"address","indexed":true,"internalType":"address"}],"anonymous":false},{"type":"event","name":"TokensWithdrawn","inputs":[{"name":"to","type":"address","indexed":false,"internalType":"address"},{"name":"amount","type":"uint256","indexed":false,"internalType":"uint256"}],"anonymous":false},{"type":"event","name":"VestingCreated","inputs":[{"name":"beneficiary","type":"address","indexed":false,"internalType":"address"},{"name":"amount","type":"uint256","indexed":false,"internalType":"uint256"},{"name":"creationTime","type":"uint256","indexed":false,"internalType":"uint256"}],"anonymous":false},{"type":"error","name":"AlreadyInitialized","inputs":[]},{"type":"error","name":"AmountCantBeZero","inputs":[]},{"type":"error","name":"BelowMinimalClaimAmount","inputs":[]},{"type":"error","name":"CantClaimMoreThanTotalAmount","inputs":[]},{"type":"error","name":"CliffCantBeLongerThanDuration","inputs":[]},{"type":"error","name":"CliffNotReached","inputs":[]},{"type":"error","name":"CooldownCantBeLongerThanDuration","inputs":[]},{"type":"error","name":"CooldownNotPassed","inputs":[]},{"type":"error","name":"DurationCantBeZero","inputs":[]},{"type":"error","name":"InfsufficientBalance","inputs":[]},{"type":"error","name":"InvalidBeneficiary","inputs":[]},{"type":"error","name":"NothingToClaim","inputs":[]},{"type":"error","name":"NothingToWithdraw","inputs":[]},{"type":"error","name":"OwnableInvalidOwner","inputs":[{"name":"owner","type":"address","internalType":"address"}]},{"type":"error","name":"OwnableUnauthorizedAccount","inputs":[{"name":"account","type":"address","internalType":"address"}]},{"type":"error","name":"StartTimeShouldBeFuture","inputs":[]},{"type":"error","name":"TransferFailed","inputs":[]},{"type":"error","name":"VestingAlreadyExist","inputs":[]},{"type":"error","name":"VestingNotFound","inputs":[]},{"type":"error","name":"WithdrawTransferFailed","inputs":[]}],"bytecode":{"object":"0x6080604052335f73ffffffffffffffffffffffffffffffffffffffff168173ffffffffffffffffffffffffffffffffffffffff1603610075575f6040517f1e4fbdf700000000000000000000000000000000000000000000000000000000815260040161006c919061018a565b60405180910390fd5b6100848161008a60201b60201c565b506101a3565b5f5f5f9054906101000a900473ffffffffffffffffffffffffffffffffffffffff169050815f5f6101000a81548173ffffffffffffffffffffffffffffffffffffffff021916908373ffffffffffffffffffffffffffffffffffffffff1602179055508173ffffffffffffffffffffffffffffffffffffffff168173ffffffffffffffffffffffffffffffffffffffff167f8be0079c531659141344cd1fd0a4f28419497f9722a3daafe3b4186f6b6457e060405160405180910390a35050565b5f73ffffffffffffffffffffffffffffffffffffffff82169050919050565b5f6101748261014b565b9050919050565b6101848161016a565b82525050565b5f60208201905061019d5f83018461017b565b92915050565b6118c3806101b05f395ff3fe608060405234801561000f575f5ffd5b50600436106100b1575f3560e01c80638da5cb5b1161006f5780638da5cb5b14610163578063a00a45cb14610181578063b3b3e87f146101b1578063daf49863146101cd578063f2fde38b14610204578063fc0c546a14610220576100b1565b80622f9569146100b5578063439fab91146100d35780634e71d92d14610103578063715018a61461010d5780637c559085146101175780638988504914610133575b5f5ffd5b6100bd61023e565b6040516100ca91906110ca565b60405180910390f35b6100ed60048036038101906100e89190611230565b610244565b6040516100fa9190611291565b60405180910390f35b61010b610314565b005b610115610644565b005b610131600480360381019061012c919061132e565b610657565b005b61014d600480360381019061014891906113cb565b610ae1565b60405161015a91906110ca565b60405180910390f35b61016b610b67565b6040516101789190611405565b60405180910390f35b61019b6004803603810190610196919061141e565b610b8e565b6040516101a891906114bc565b60405180910390f35b6101cb60048036038101906101c691906113cb565b610bba565b005b6101e760048036038101906101e291906113cb565b610db3565b6040516101fb9897969594939291906114dc565b60405180910390f35b61021e600480360381019061021991906113cb565b610df7565b005b610228610e7b565b60405161023591906115b3565b60405180910390f35b60025481565b5f600160149054906101000a900460ff161561028c576040517f0dc149f000000000000000000000000000000000000000000000000000000000815260040160405180910390fd5b5f5f838060200190518101906102a29190611607565b915091508160015f6101000a81548173ffffffffffffffffffffffffffffffffffffffff021916908373ffffffffffffffffffffffffffffffffffffffff1602179055506102ef81610df7565b60018060146101000a81548160ff021916908315150217905550600192505050919050565b5f60035f3373ffffffffffffffffffffffffffffffffffffffff1673ffffffffffffffffffffffffffffffffffffffff1681526020019081526020015f2090505f815f015411610390576040517fe146a52b00000000000000000000000000000000000000000000000000000000815260040160405180910390fd5b806002015481600101546103a49190611672565b42116103dc576040517f392a328700000000000000000000000000000000000000000000000000000000815260040160405180910390fd5b806006015481600501546103f09190611672565b421015610429576040517f9e49499400000000000000000000000000000000000000000000000000000000815260040160405180910390fd5b5f61043333610ae1565b90505f811161046e576040517f969bf72800000000000000000000000000000000000000000000000000000000815260040160405180910390fd5b81600701548110156104ac576040517f5dfcc46200000000000000000000000000000000000000000000000000000000815260040160405180910390fd5b815f01548260040154826104c09190611672565b11156104f8576040517f96a6633000000000000000000000000000000000000000000000000000000000815260040160405180910390fd5b80826004015f82825461050b9190611672565b925050819055504282600501819055508060025f82825461052c91906116a5565b9250508190555060015f9054906101000a900473ffffffffffffffffffffffffffffffffffffffff1673ffffffffffffffffffffffffffffffffffffffff1663a9059cbb33836040518363ffffffff1660e01b815260040161058f9291906116d8565b6020604051808303815f875af11580156105ab573d5f5f3e3d5ffd5b505050506040513d601f19601f820116820180604052508101906105cf9190611729565b610605576040517f90b8ec1800000000000000000000000000000000000000000000000000000000815260040160405180910390fd5b7f34fcbac0073d7c3d388e51312faf357774904998eeb8fca628b9e6f65ee1cbf733824260405161063893929190611754565b60405180910390a15050565b61064c610ea0565b6106555f610f27565b565b61065f610ea0565b8560025460015f9054906101000a900473ffffffffffffffffffffffffffffffffffffffff1673ffffffffffffffffffffffffffffffffffffffff166370a08231306040518263ffffffff1660e01b81526004016106bd9190611405565b602060405180830381865afa1580156106d8573d5f5f3e3d5ffd5b505050506040513d601f19601f820116820180604052508101906106fc919061179d565b61070691906116a5565b101561073e576040517fac16ee3e00000000000000000000000000000000000000000000000000000000815260040160405180910390fd5b5f8611610777576040517f46f1397d00000000000000000000000000000000000000000000000000000000815260040160405180910390fd5b5f60035f8973ffffffffffffffffffffffffffffffffffffffff1673ffffffffffffffffffffffffffffffffffffffff1681526020019081526020015f205f01541480610842575060035f8873ffffffffffffffffffffffffffffffffffffffff1673ffffffffffffffffffffffffffffffffffffffff1681526020019081526020015f206004015460035f8973ffffffffffffffffffffffffffffffffffffffff1673ffffffffffffffffffffffffffffffffffffffff1681526020019081526020015f205f0154145b610878576040517fda2573cf00000000000000000000000000000000000000000000000000000000815260040160405180910390fd5b4285116108b1576040517f41d33ec100000000000000000000000000000000000000000000000000000000815260040160405180910390fd5b5f83116108ea576040517faf0a1ac000000000000000000000000000000000000000000000000000000000815260040160405180910390fd5b828410610923576040517f12e390eb00000000000000000000000000000000000000000000000000000000815260040160405180910390fd5b82821061095c576040517f28a4e6f600000000000000000000000000000000000000000000000000000000815260040160405180910390fd5b5f73ffffffffffffffffffffffffffffffffffffffff168773ffffffffffffffffffffffffffffffffffffffff16036109c1576040517f5566df5c00000000000000000000000000000000000000000000000000000000815260040160405180910390fd5b6040518061010001604052808781526020018681526020018581526020018481526020015f81526020015f81526020018381526020018281525060035f8973ffffffffffffffffffffffffffffffffffffffff1673ffffffffffffffffffffffffffffffffffffffff1681526020019081526020015f205f820151815f01556020820151816001015560408201518160020155606082015181600301556080820151816004015560a0820151816005015560c0820151816006015560e0820151816007015590505085600254610a979190611672565b6002819055507f9ade76f4385de306666dfb21a52b27d52db0fde8ad0f515fa261f532cac60d21878742604051610ad093929190611754565b60405180910390a150505050505050565b5f5f60035f8473ffffffffffffffffffffffffffffffffffffffff1673ffffffffffffffffffffffffffffffffffffffff1681526020019081526020015f20905080600201548160010154610b369190611672565b421015610b46575f915050610b62565b8060040154610b5484610fe8565b610b5e91906116a5565b9150505b919050565b5f5f5f9054906101000a900473ffffffffffffffffffffffffffffffffffffffff16905090565b60608282604051602001610ba39291906117c8565b604051602081830303815290604052905092915050565b610bc2610ea0565b5f60025460015f9054906101000a900473ffffffffffffffffffffffffffffffffffffffff1673ffffffffffffffffffffffffffffffffffffffff166370a08231306040518263ffffffff1660e01b8152600401610c209190611405565b602060405180830381865afa158015610c3b573d5f5f3e3d5ffd5b505050506040513d601f19601f82011682018060405250810190610c5f919061179d565b610c6991906116a5565b90505f8111610ca4576040517fd0d04f6000000000000000000000000000000000000000000000000000000000815260040160405180910390fd5b60015f9054906101000a900473ffffffffffffffffffffffffffffffffffffffff1673ffffffffffffffffffffffffffffffffffffffff1663a9059cbb83836040518363ffffffff1660e01b8152600401610d009291906116d8565b6020604051808303815f875af1158015610d1c573d5f5f3e3d5ffd5b505050506040513d601f19601f82011682018060405250810190610d409190611729565b610d76576040517f69a4751b00000000000000000000000000000000000000000000000000000000815260040160405180910390fd5b7f6352c5382c4a4578e712449ca65e83cdb392d045dfcf1cad9615189db2da244b8282604051610da79291906116d8565b60405180910390a15050565b6003602052805f5260405f205f91509050805f0154908060010154908060020154908060030154908060040154908060050154908060060154908060070154905088565b610dff610ea0565b5f73ffffffffffffffffffffffffffffffffffffffff168173ffffffffffffffffffffffffffffffffffffffff1603610e6f575f6040517f1e4fbdf7000000000000000000000000000000000000000000000000000000008152600401610e669190611405565b60405180910390fd5b610e7881610f27565b50565b60015f9054906101000a900473ffffffffffffffffffffffffffffffffffffffff1681565b610ea86110ab565b73ffffffffffffffffffffffffffffffffffffffff16610ec6610b67565b73ffffffffffffffffffffffffffffffffffffffff1614610f2557610ee96110ab565b6040517f118cdaa7000000000000000000000000000000000000000000000000000000008152600401610f1c9190611405565b60405180910390fd5b565b5f5f5f9054906101000a900473ffffffffffffffffffffffffffffffffffffffff169050815f5f6101000a81548173ffffffffffffffffffffffffffffffffffffffff021916908373ffffffffffffffffffffffffffffffffffffffff1602179055508173ffffffffffffffffffffffffffffffffffffffff168173ffffffffffffffffffffffffffffffffffffffff167f8be0079c531659141344cd1fd0a4f28419497f9722a3daafe3b4186f6b6457e060405160405180910390a35050565b5f5f60035f8473ffffffffffffffffffffffffffffffffffffffff1673ffffffffffffffffffffffffffffffffffffffff1681526020019081526020015f2090508060020154816001015461103d9190611672565b42101561104d575f9150506110a6565b5f816002015482600101546110629190611672565b4261106d91906116a5565b9050816003015481111561108357816003015490505b816003015481835f015461109791906117ef565b6110a1919061185d565b925050505b919050565b5f33905090565b5f819050919050565b6110c4816110b2565b82525050565b5f6020820190506110dd5f8301846110bb565b92915050565b5f604051905090565b5f5ffd5b5f5ffd5b5f5ffd5b5f5ffd5b5f601f19601f8301169050919050565b7f4e487b71000000000000000000000000000000000000000000000000000000005f52604160045260245ffd5b611142826110fc565b810181811067ffffffffffffffff821117156111615761116061110c565b5b80604052505050565b5f6111736110e3565b905061117f8282611139565b919050565b5f67ffffffffffffffff82111561119e5761119d61110c565b5b6111a7826110fc565b9050602081019050919050565b828183375f83830152505050565b5f6111d46111cf84611184565b61116a565b9050828152602081018484840111156111f0576111ef6110f8565b5b6111fb8482856111b4565b509392505050565b5f82601f830112611217576112166110f4565b5b81356112278482602086016111c2565b91505092915050565b5f60208284031215611245576112446110ec565b5b5f82013567ffffffffffffffff811115611262576112616110f0565b5b61126e84828501611203565b91505092915050565b5f8115159050919050565b61128b81611277565b82525050565b5f6020820190506112a45f830184611282565b92915050565b5f73ffffffffffffffffffffffffffffffffffffffff82169050919050565b5f6112d3826112aa565b9050919050565b6112e3816112c9565b81146112ed575f5ffd5b50565b5f813590506112fe816112da565b92915050565b61130d816110b2565b8114611317575f5ffd5b50565b5f8135905061132881611304565b92915050565b5f5f5f5f5f5f5f60e0888a031215611349576113486110ec565b5b5f6113568a828b016112f0565b97505060206113678a828b0161131a565b96505060406113788a828b0161131a565b95505060606113898a828b0161131a565b945050608061139a8a828b0161131a565b93505060a06113ab8a828b0161131a565b92505060c06113bc8a828b0161131a565b91505092959891949750929550565b5f602082840312156113e0576113df6110ec565b5b5f6113ed848285016112f0565b91505092915050565b6113ff816112c9565b82525050565b5f6020820190506114185f8301846113f6565b92915050565b5f5f60408385031215611434576114336110ec565b5b5f611441858286016112f0565b9250506020611452858286016112f0565b9150509250929050565b5f81519050919050565b5f82825260208201905092915050565b8281835e5f83830152505050565b5f61148e8261145c565b6114988185611466565b93506114a8818560208601611476565b6114b1816110fc565b840191505092915050565b5f6020820190508181035f8301526114d48184611484565b905092915050565b5f610100820190506114f05f83018b6110bb565b6114fd602083018a6110bb565b61150a60408301896110bb565b61151760608301886110bb565b61152460808301876110bb565b61153160a08301866110bb565b61153e60c08301856110bb565b61154b60e08301846110bb565b9998505050505050505050565b5f819050919050565b5f61157b611576611571846112aa565b611558565b6112aa565b9050919050565b5f61158c82611561565b9050919050565b5f61159d82611582565b9050919050565b6115ad81611593565b82525050565b5f6020820190506115c65f8301846115a4565b92915050565b5f6115d6826112aa565b9050919050565b6115e6816115cc565b81146115f0575f5ffd5b50565b5f81519050611601816115dd565b92915050565b5f5f6040838503121561161d5761161c6110ec565b5b5f61162a858286016115f3565b925050602061163b858286016115f3565b9150509250929050565b7f4e487b71000000000000000000000000000000000000000000000000000000005f52601160045260245ffd5b5f61167c826110b2565b9150611687836110b2565b925082820190508082111561169f5761169e611645565b5b92915050565b5f6116af826110b2565b91506116ba836110b2565b92508282039050818111156116d2576116d1611645565b5b92915050565b5f6040820190506116eb5f8301856113f6565b6116f860208301846110bb565b9392505050565b61170881611277565b8114611712575f5ffd5b50565b5f81519050611723816116ff565b92915050565b5f6020828403121561173e5761173d6110ec565b5b5f61174b84828501611715565b91505092915050565b5f6060820190506117675f8301866113f6565b61177460208301856110bb565b61178160408301846110bb565b949350505050565b5f8151905061179781611304565b92915050565b5f602082840312156117b2576117b16110ec565b5b5f6117bf84828501611789565b91505092915050565b5f6040820190506117db5f8301856113f6565b6117e860208301846113f6565b9392505050565b5f6117f9826110b2565b9150611804836110b2565b9250828202611812816110b2565b9150828204841483151761182957611828611645565b5b5092915050565b7f4e487b71000000000000000000000000000000000000000000000000000000005f52601260045260245ffd5b5f611867826110b2565b9150611872836110b2565b92508261188257611881611830565b5b82820490509291505056fea26469706673582212203b4da197dc5410022e162659c851e491c367e755963f9c63c86146ab98d3d7ca64736f6c634300081d0033","linkReferences":{}},"methodIdentifiers":{"allocatedTokens()":"002f9569","claim()":"4e71d92d","claimableAmount(address)":"89885049","getInitData(address,address)":"a00a45cb","initialize(bytes)":"439fab91","owner()":"8da5cb5b","renounceOwnership()":"715018a6","startVesting(address,uint256,uint256,uint256,uint256,uint256,uint256)":"7c559085","token()":"fc0c546a","transferOwnership(address)":"f2fde38b","vestings(address)":"daf49863","withdrawUnallocated(address)":"b3b3e87f"},"id":14}