{"abi":[{"type":"constructor","inputs":[],"stateMutability":"nonpayable"},{"type":"function","name":"allocatedTokens","inputs":[],"outputs":[{"name":"","type":"uint256","internalType":"uint256"}],"stateMutability":"view"},{"type":"function","name":"claim","inputs":[],"outputs":[],"stateMutability":"nonpayable"},{"type":"function","name":"claimableAmount","inputs":[{"name":"_claimer","type":"address","internalType":"address"}],"outputs":[{"name":"","type":"uint256","internalType":"uint256"}],"stateMutability":"view"},{"type":"function","name":"getInitData","inputs":[{"name":"_token","type":"address","internalType":"address"},{"name":"_owner","type":"address","internalType":"address"}],"outputs":[{"name":"","type":"bytes","internalType":"bytes"}],"stateMutability":"pure"},{"type":"function","name":"initialize","inputs":[{"name":"_initData","type":"bytes","internalType":"bytes"}],"outputs":[{"name":"","type":"bool","internalType":"bool"}],"stateMutability":"nonpayable"},{"type":"function","name":"owner","inputs":[],"outputs":[{"name":"","type":"address","internalType":"address"}],"stateMutability":"view"},{"type":"function","name":"renounceOwnership","inputs":[],"outputs":[],"stateMutability":"nonpayable"},{"type":"function","name":"startVesting","inputs":[{"name":"_beneficiary","type":"address","internalType":"address"},{"name":"_totalAmount","type":"uint256","internalType":"uint256"},{"name":"_startTime","type":"uint256","internalType":"uint256"},{"name":"_cliff","type":"uint256","internalType":"uint256"},{"name":"_duration","type":"uint256","internalType":"uint256"},{"name":"_claimCooldown","type":"uint256","internalType":"uint256"},{"name":"_minClaimAmount","type":"uint256","internalType":"uint256"}],"outputs":[],"stateMutability":"nonpayable"},{"type":"function","name":"token","inputs":[],"outputs":[{"name":"","type":"address","internalType":"contract IERC20"}],"stateMutability":"view"},{"type":"function","name":"transferOwnership","inputs":[{"name":"newOwner","type":"address","internalType":"address"}],"outputs":[],"stateMutability":"nonpayable"},{"type":"function","name":"vestings","inputs":[{"name":"","type":"address","internalType":"address"}],"outputs":[{"name":"totalAmount","type":"uint256","internalType":"uint256"},{"name":"startTime","type":"uint256","internalType":"uint256"},{"name":"cliff","type":"uint256","internalType":"uint256"},{"name":"duration","type":"uint256","internalType":"uint256"},{"name":"claimed","type":"uint256","internalType":"uint256"},{"name":"lastClaimTime","type":"uint256","internalType":"uint256"},{"name":"claimCooldown","type":"uint256","internalType":"uint256"},{"name":"minClaimAmount","type":"uint256","internalType":"uint256"}],"stateMutability":"view"},{"type":"function","name":"withdrawUnallocated","inputs":[{"name":"_to","type":"address","internalType":"address"}],"outputs":[],"stateMutability":"nonpayable"},{"type":"event","name":"Claim","inputs":[{"name":"beneficiary","type":"address","indexed":false,"internalType":"address"},{"name":"amount","type":"uint256","indexed":false,"internalType":"uint256"},{"name":"timestamp","type":"uint256","indexed":false,"internalType":"uint256"}],"anonymous":false},{"type":"event","name":"OwnershipTransferred","inputs":[{"name":"previousOwner","type":"address","indexed":true,"internalType":"address"},{"name":"newOwner","type":"address","indexed":true,"internalType":"address"}],"anonymous":false},{"type":"event","name":"TokensWithdrawn","inputs":[{"name":"to","type":"address","indexed":false,"internalType":"address"},{"name":"amount","type":"uint256","indexed":false,"internalType":"uint256"}],"anonymous":false},{"type":"event","name":"VestingCreated","inputs":[{"name":"beneficiary","type":"address","indexed":false,"internalType":"address"},{"name":"amount","type":"uint256","indexed":false,"internalType":"uint256"},{"name":"creationTime","type":"uint256","indexed":false,"internalType":"uint256"}],"anonymous":false},{"type":"error","name":"AlreadyInitialized","inputs":[]},{"type":"error","name":"AmountCantBeZero","inputs":[]},{"type":"error","name":"BelowMinimalClaimAmount","inputs":[]},{"type":"error","name":"CantClaimMoreThanTotalAmount","inputs":[]},{"type":"error","name":"CliffCantBeLongerThanDuration","inputs":[]},{"type":"error","name":"CliffNotReached","inputs":[]},{"type":"error","name":"CooldownCantBeLongerThanDuration","inputs":[]},{"type":"error","name":"CooldownNotPassed","inputs":[]},{"type":"error","name":"DurationCantBeZero","inputs":[]},{"type":"error","name":"InfsufficientBalance","inputs":[]},{"type":"error","name":"InvalidBeneficiary","inputs":[]},{"type":"error","name":"NothingToClaim","inputs":[]},{"type":"error","name":"NothingToWithdraw","inputs":[]},{"type":"error","name":"OwnableInvalidOwner","inputs":[{"name":"owner","type":"address","internalType":"address"}]},{"type":"error","name":"OwnableUnauthorizedAccount","inputs":[{"name":"account","type":"address","internalType":"address"}]},{"type":"error","name":"StartTimeShouldBeFuture","inputs":[]},{"type":"error","name":"TransferFailed","inputs":[]},{"type":"error","name":"VestingAlreadyExist","inputs":[]},{"type":"error","name":"VestingNotFound","inputs":[]},{"type":"error","name":"WithdrawTransferFailed","inputs":[]}],"bytecode":{"object":"0x608060405234801561000f575f5ffd5b50335f73ffffffffffffffffffffffffffffffffffffffff168173ffffffffffffffffffffffffffffffffffffffff1603610081575f6040517f1e4fbdf70000000000000000000000000000000000000000000000000000000081526004016100789190610196565b60405180910390fd5b6100908161009660201b60201c565b506101af565b5f5f5f9054906101000a900473ffffffffffffffffffffffffffffffffffffffff169050815f5f6101000a81548173ffffffffffffffffffffffffffffffffffffffff021916908373ffffffffffffffffffffffffffffffffffffffff1602179055508173ffffffffffffffffffffffffffffffffffffffff168173ffffffffffffffffffffffffffffffffffffffff167f8be0079c531659141344cd1fd0a4f28419497f9722a3daafe3b4186f6b6457e060405160405180910390a35050565b5f73ffffffffffffffffffffffffffffffffffffffff82169050919050565b5f61018082610157565b9050919050565b61019081610176565b82525050565b5f6020820190506101a95f830184610187565b92915050565b6118c7806101bc5f395ff3fe608060405234801561000f575f5ffd5b50600436106100b1575f3560e01c80638da5cb5b1161006f5780638da5cb5b14610163578063a00a45cb14610181578063b3b3e87f146101b1578063daf49863146101cd578063f2fde38b14610204578063fc0c546a14610220576100b1565b80622f9569146100b5578063439fab91146100d35780634e71d92d14610103578063715018a61461010d5780637c559085146101175780638988504914610133575b5f5ffd5b6100bd61023e565b6040516100ca91906110ce565b60405180910390f35b6100ed60048036038101906100e89190611234565b610244565b6040516100fa9190611295565b60405180910390f35b61010b610314565b005b610115610644565b005b610131600480360381019061012c9190611332565b610657565b005b61014d600480360381019061014891906113cf565b610ae5565b60405161015a91906110ce565b60405180910390f35b61016b610b6b565b6040516101789190611409565b60405180910390f35b61019b60048036038101906101969190611422565b610b92565b6040516101a891906114c0565b60405180910390f35b6101cb60048036038101906101c691906113cf565b610bbe565b005b6101e760048036038101906101e291906113cf565b610db7565b6040516101fb9897969594939291906114e0565b60405180910390f35b61021e600480360381019061021991906113cf565b610dfb565b005b610228610e7f565b60405161023591906115b7565b60405180910390f35b60025481565b5f600160149054906101000a900460ff161561028c576040517f0dc149f000000000000000000000000000000000000000000000000000000000815260040160405180910390fd5b5f5f838060200190518101906102a2919061160b565b915091508160015f6101000a81548173ffffffffffffffffffffffffffffffffffffffff021916908373ffffffffffffffffffffffffffffffffffffffff1602179055506102ef81610dfb565b60018060146101000a81548160ff021916908315150217905550600192505050919050565b5f60035f3373ffffffffffffffffffffffffffffffffffffffff1673ffffffffffffffffffffffffffffffffffffffff1681526020019081526020015f2090505f815f015411610390576040517fe146a52b00000000000000000000000000000000000000000000000000000000815260040160405180910390fd5b806002015481600101546103a49190611676565b42116103dc576040517f392a328700000000000000000000000000000000000000000000000000000000815260040160405180910390fd5b806006015481600501546103f09190611676565b421015610429576040517f9e49499400000000000000000000000000000000000000000000000000000000815260040160405180910390fd5b5f61043333610ae5565b90505f811161046e576040517f969bf72800000000000000000000000000000000000000000000000000000000815260040160405180910390fd5b81600701548110156104ac576040517f5dfcc46200000000000000000000000000000000000000000000000000000000815260040160405180910390fd5b815f01548260040154826104c09190611676565b11156104f8576040517f96a6633000000000000000000000000000000000000000000000000000000000815260040160405180910390fd5b80826004015f82825461050b9190611676565b925050819055504282600501819055508060025f82825461052c91906116a9565b9250508190555060015f9054906101000a900473ffffffffffffffffffffffffffffffffffffffff1673ffffffffffffffffffffffffffffffffffffffff1663a9059cbb33836040518363ffffffff1660e01b815260040161058f9291906116dc565b6020604051808303815f875af11580156105ab573d5f5f3e3d5ffd5b505050506040513d601f19601f820116820180604052508101906105cf919061172d565b610605576040517f90b8ec1800000000000000000000000000000000000000000000000000000000815260040160405180910390fd5b7f34fcbac0073d7c3d388e51312faf357774904998eeb8fca628b9e6f65ee1cbf733824260405161063893929190611758565b60405180910390a15050565b61064c610ea4565b6106555f610f2b565b565b61065f610ea4565b8560025460015f9054906101000a900473ffffffffffffffffffffffffffffffffffffffff1673ffffffffffffffffffffffffffffffffffffffff166370a08231306040518263ffffffff1660e01b81526004016106bd9190611409565b602060405180830381865afa1580156106d8573d5f5f3e3d5ffd5b505050506040513d601f19601f820116820180604052508101906106fc91906117a1565b61070691906116a9565b101561073e576040517fac16ee3e00000000000000000000000000000000000000000000000000000000815260040160405180910390fd5b5f8611610777576040517f46f1397d00000000000000000000000000000000000000000000000000000000815260040160405180910390fd5b5f60035f8973ffffffffffffffffffffffffffffffffffffffff1673ffffffffffffffffffffffffffffffffffffffff1681526020019081526020015f205f01541480610842575060035f8873ffffffffffffffffffffffffffffffffffffffff1673ffffffffffffffffffffffffffffffffffffffff1681526020019081526020015f206004015460035f8973ffffffffffffffffffffffffffffffffffffffff1673ffffffffffffffffffffffffffffffffffffffff1681526020019081526020015f205f0154145b610878576040517fda2573cf00000000000000000000000000000000000000000000000000000000815260040160405180910390fd5b4285116108b1576040517f41d33ec100000000000000000000000000000000000000000000000000000000815260040160405180910390fd5b5f83116108ea576040517faf0a1ac000000000000000000000000000000000000000000000000000000000815260040160405180910390fd5b828410610923576040517f12e390eb00000000000000000000000000000000000000000000000000000000815260040160405180910390fd5b82821061095c576040517f28a4e6f600000000000000000000000000000000000000000000000000000000815260040160405180910390fd5b5f73ffffffffffffffffffffffffffffffffffffffff168773ffffffffffffffffffffffffffffffffffffffff16036109c1576040517f5566df5c00000000000000000000000000000000000000000000000000000000815260040160405180910390fd5b6040518061010001604052808781526020018681526020018581526020018481526020015f81526020015f81526020018381526020018281525060035f8973ffffffffffffffffffffffffffffffffffffffff1673ffffffffffffffffffffffffffffffffffffffff1681526020019081526020015f205f820151815f01556020820151816001015560408201518160020155606082015181600301556080820151816004015560a0820151816005015560c0820151816006015560e082015181600701559050508560025f828254610a9a9190611676565b925050819055507f9ade76f4385de306666dfb21a52b27d52db0fde8ad0f515fa261f532cac60d21878742604051610ad493929190611758565b60405180910390a150505050505050565b5f5f60035f8473ffffffffffffffffffffffffffffffffffffffff1673ffffffffffffffffffffffffffffffffffffffff1681526020019081526020015f20905080600201548160010154610b3a9190611676565b421015610b4a575f915050610b66565b8060040154610b5884610fec565b610b6291906116a9565b9150505b919050565b5f5f5f9054906101000a900473ffffffffffffffffffffffffffffffffffffffff16905090565b60608282604051602001610ba79291906117cc565b604051602081830303815290604052905092915050565b610bc6610ea4565b5f60025460015f9054906101000a900473ffffffffffffffffffffffffffffffffffffffff1673ffffffffffffffffffffffffffffffffffffffff166370a08231306040518263ffffffff1660e01b8152600401610c249190611409565b602060405180830381865afa158015610c3f573d5f5f3e3d5ffd5b505050506040513d601f19601f82011682018060405250810190610c6391906117a1565b610c6d91906116a9565b90505f8111610ca8576040517fd0d04f6000000000000000000000000000000000000000000000000000000000815260040160405180910390fd5b60015f9054906101000a900473ffffffffffffffffffffffffffffffffffffffff1673ffffffffffffffffffffffffffffffffffffffff1663a9059cbb83836040518363ffffffff1660e01b8152600401610d049291906116dc565b6020604051808303815f875af1158015610d20573d5f5f3e3d5ffd5b505050506040513d601f19601f82011682018060405250810190610d44919061172d565b610d7a576040517f69a4751b00000000000000000000000000000000000000000000000000000000815260040160405180910390fd5b7f6352c5382c4a4578e712449ca65e83cdb392d045dfcf1cad9615189db2da244b8282604051610dab9291906116dc565b60405180910390a15050565b6003602052805f5260405f205f91509050805f0154908060010154908060020154908060030154908060040154908060050154908060060154908060070154905088565b610e03610ea4565b5f73ffffffffffffffffffffffffffffffffffffffff168173ffffffffffffffffffffffffffffffffffffffff1603610e73575f6040517f1e4fbdf7000000000000000000000000000000000000000000000000000000008152600401610e6a9190611409565b60405180910390fd5b610e7c81610f2b565b50565b60015f9054906101000a900473ffffffffffffffffffffffffffffffffffffffff1681565b610eac6110af565b73ffffffffffffffffffffffffffffffffffffffff16610eca610b6b565b73ffffffffffffffffffffffffffffffffffffffff1614610f2957610eed6110af565b6040517f118cdaa7000000000000000000000000000000000000000000000000000000008152600401610f209190611409565b60405180910390fd5b565b5f5f5f9054906101000a900473ffffffffffffffffffffffffffffffffffffffff169050815f5f6101000a81548173ffffffffffffffffffffffffffffffffffffffff021916908373ffffffffffffffffffffffffffffffffffffffff1602179055508173ffffffffffffffffffffffffffffffffffffffff168173ffffffffffffffffffffffffffffffffffffffff167f8be0079c531659141344cd1fd0a4f28419497f9722a3daafe3b4186f6b6457e060405160405180910390a35050565b5f5f60035f8473ffffffffffffffffffffffffffffffffffffffff1673ffffffffffffffffffffffffffffffffffffffff1681526020019081526020015f209050806002015481600101546110419190611676565b421015611051575f9150506110aa565b5f816002015482600101546110669190611676565b4261107191906116a9565b9050816003015481111561108757816003015490505b816003015481835f015461109b91906117f3565b6110a59190611861565b925050505b919050565b5f33905090565b5f819050919050565b6110c8816110b6565b82525050565b5f6020820190506110e15f8301846110bf565b92915050565b5f604051905090565b5f5ffd5b5f5ffd5b5f5ffd5b5f5ffd5b5f601f19601f8301169050919050565b7f4e487b71000000000000000000000000000000000000000000000000000000005f52604160045260245ffd5b61114682611100565b810181811067ffffffffffffffff8211171561116557611164611110565b5b80604052505050565b5f6111776110e7565b9050611183828261113d565b919050565b5f67ffffffffffffffff8211156111a2576111a1611110565b5b6111ab82611100565b9050602081019050919050565b828183375f83830152505050565b5f6111d86111d384611188565b61116e565b9050828152602081018484840111156111f4576111f36110fc565b5b6111ff8482856111b8565b509392505050565b5f82601f83011261121b5761121a6110f8565b5b813561122b8482602086016111c6565b91505092915050565b5f60208284031215611249576112486110f0565b5b5f82013567ffffffffffffffff811115611266576112656110f4565b5b61127284828501611207565b91505092915050565b5f8115159050919050565b61128f8161127b565b82525050565b5f6020820190506112a85f830184611286565b92915050565b5f73ffffffffffffffffffffffffffffffffffffffff82169050919050565b5f6112d7826112ae565b9050919050565b6112e7816112cd565b81146112f1575f5ffd5b50565b5f81359050611302816112de565b92915050565b611311816110b6565b811461131b575f5ffd5b50565b5f8135905061132c81611308565b92915050565b5f5f5f5f5f5f5f60e0888a03121561134d5761134c6110f0565b5b5f61135a8a828b016112f4565b975050602061136b8a828b0161131e565b965050604061137c8a828b0161131e565b955050606061138d8a828b0161131e565b945050608061139e8a828b0161131e565b93505060a06113af8a828b0161131e565b92505060c06113c08a828b0161131e565b91505092959891949750929550565b5f602082840312156113e4576113e36110f0565b5b5f6113f1848285016112f4565b91505092915050565b611403816112cd565b82525050565b5f60208201905061141c5f8301846113fa565b92915050565b5f5f60408385031215611438576114376110f0565b5b5f611445858286016112f4565b9250506020611456858286016112f4565b9150509250929050565b5f81519050919050565b5f82825260208201905092915050565b8281835e5f83830152505050565b5f61149282611460565b61149c818561146a565b93506114ac81856020860161147a565b6114b581611100565b840191505092915050565b5f6020820190508181035f8301526114d88184611488565b905092915050565b5f610100820190506114f45f83018b6110bf565b611501602083018a6110bf565b61150e60408301896110bf565b61151b60608301886110bf565b61152860808301876110bf565b61153560a08301866110bf565b61154260c08301856110bf565b61154f60e08301846110bf565b9998505050505050505050565b5f819050919050565b5f61157f61157a611575846112ae565b61155c565b6112ae565b9050919050565b5f61159082611565565b9050919050565b5f6115a182611586565b9050919050565b6115b181611597565b82525050565b5f6020820190506115ca5f8301846115a8565b92915050565b5f6115da826112ae565b9050919050565b6115ea816115d0565b81146115f4575f5ffd5b50565b5f81519050611605816115e1565b92915050565b5f5f60408385031215611621576116206110f0565b5b5f61162e858286016115f7565b925050602061163f858286016115f7565b9150509250929050565b7f4e487b71000000000000000000000000000000000000000000000000000000005f52601160045260245ffd5b5f611680826110b6565b915061168b836110b6565b92508282019050808211156116a3576116a2611649565b5b92915050565b5f6116b3826110b6565b91506116be836110b6565b92508282039050818111156116d6576116d5611649565b5b92915050565b5f6040820190506116ef5f8301856113fa565b6116fc60208301846110bf565b9392505050565b61170c8161127b565b8114611716575f5ffd5b50565b5f8151905061172781611703565b92915050565b5f60208284031215611742576117416110f0565b5b5f61174f84828501611719565b91505092915050565b5f60608201905061176b5f8301866113fa565b61177860208301856110bf565b61178560408301846110bf565b949350505050565b5f8151905061179b81611308565b92915050565b5f602082840312156117b6576117b56110f0565b5b5f6117c38482850161178d565b91505092915050565b5f6040820190506117df5f8301856113fa565b6117ec60208301846113fa565b9392505050565b5f6117fd826110b6565b9150611808836110b6565b9250828202611816816110b6565b9150828204841483151761182d5761182c611649565b5b5092915050565b7f4e487b71000000000000000000000000000000000000000000000000000000005f52601260045260245ffd5b5f61186b826110b6565b9150611876836110b6565b92508261188657611885611834565b5b82820490509291505056fea2646970667358221220a4c953b4e7e72636b540ebb7a1ee558491f4f10a79e3bda405cc611b940d938964736f6c634300081d0033","linkReferences":{}},"methodIdentifiers":{"allocatedTokens()":"002f9569","claim()":"4e71d92d","claimableAmount(address)":"89885049","getInitData(address,address)":"a00a45cb","initialize(bytes)":"439fab91","owner()":"8da5cb5b","renounceOwnership()":"715018a6","startVesting(address,uint256,uint256,uint256,uint256,uint256,uint256)":"7c559085","token()":"fc0c546a","transferOwnership(address)":"f2fde38b","vestings(address)":"daf49863","withdrawUnallocated(address)":"b3b3e87f"},"id":25}