{"abi":[{"type":"constructor","inputs":[],"stateMutability":"payable"},{"type":"function","name":"MAX_AIRDROP_BATCH_SIZE","inputs":[],"outputs":[{"name":"","type":"uint256","internalType":"uint256"}],"stateMutability":"view"},{"type":"function","name":"airdrop","inputs":[{"name":"receivers","type":"address[]","internalType":"address[]"},{"name":"amounts","type":"uint256[]","internalType":"uint256[]"},{"name":"tokenIds","type":"uint256[]","internalType":"uint256[]"}],"outputs":[],"stateMutability":"nonpayable"},{"type":"function","name":"getInitData","inputs":[{"name":"_token","type":"address","internalType":"address"},{"name":"_treasury","type":"address","internalType":"address"},{"name":"_owner","type":"address","internalType":"address"}],"outputs":[{"name":"","type":"bytes","internalType":"bytes"}],"stateMutability":"pure"},{"type":"function","name":"initialize","inputs":[{"name":"_initData","type":"bytes","internalType":"bytes"}],"outputs":[{"name":"","type":"bool","internalType":"bool"}],"stateMutability":"nonpayable"},{"type":"function","name":"owner","inputs":[],"outputs":[{"name":"","type":"address","internalType":"address"}],"stateMutability":"view"},{"type":"function","name":"renounceOwnership","inputs":[],"outputs":[],"stateMutability":"nonpayable"},{"type":"function","name":"token","inputs":[],"outputs":[{"name":"","type":"address","internalType":"contract IERC1155"}],"stateMutability":"view"},{"type":"function","name":"transferOwnership","inputs":[{"name":"newOwner","type":"address","internalType":"address"}],"outputs":[],"stateMutability":"nonpayable"},{"type":"function","name":"treasury","inputs":[],"outputs":[{"name":"","type":"address","internalType":"address"}],"stateMutability":"view"},{"type":"event","name":"OwnershipTransferred","inputs":[{"name":"previousOwner","type":"address","indexed":true,"internalType":"address"},{"name":"newOwner","type":"address","indexed":true,"internalType":"address"}],"anonymous":false},{"type":"error","name":"AlreadyInitialized","inputs":[]},{"type":"error","name":"AmountsLengthMismatch","inputs":[]},{"type":"error","name":"BatchSizeExceeded","inputs":[]},{"type":"error","name":"NeedToApproveTokens","inputs":[]},{"type":"error","name":"OwnableInvalidOwner","inputs":[{"name":"owner","type":"address","internalType":"address"}]},{"type":"error","name":"OwnableUnauthorizedAccount","inputs":[{"name":"account","type":"address","internalType":"address"}]},{"type":"error","name":"ReceiversLengthMismatch","inputs":[]}],"bytecode":{"object":"0x6080604052335f73ffffffffffffffffffffffffffffffffffffffff168173ffffffffffffffffffffffffffffffffffffffff1603610075575f6040517f1e4fbdf700000000000000000000000000000000000000000000000000000000815260040161006c919061018a565b60405180910390fd5b6100848161008a60201b60201c565b506101a3565b5f5f5f9054906101000a900473ffffffffffffffffffffffffffffffffffffffff169050815f5f6101000a81548173ffffffffffffffffffffffffffffffffffffffff021916908373ffffffffffffffffffffffffffffffffffffffff1602179055508173ffffffffffffffffffffffffffffffffffffffff168173ffffffffffffffffffffffffffffffffffffffff167f8be0079c531659141344cd1fd0a4f28419497f9722a3daafe3b4186f6b6457e060405160405180910390a35050565b5f73ffffffffffffffffffffffffffffffffffffffff82169050919050565b5f6101748261014b565b9050919050565b6101848161016a565b82525050565b5f60208201905061019d5f83018461017b565b92915050565b610f98806101b05f395ff3fe608060405234801561000f575f5ffd5b5060043610610091575f3560e01c80638da5cb5b116100645780638da5cb5b14610109578063b277332d14610127578063c475dda914610145578063f2fde38b14610175578063fc0c546a1461019157610091565b80631bf2907b14610095578063439fab91146100b157806361d027b3146100e1578063715018a6146100ff575b5f5ffd5b6100af60048036038101906100aa91906108fc565b6101af565b005b6100cb60048036038101906100c69190610ae4565b610495565b6040516100d89190610b45565b60405180910390f35b6100e96105aa565b6040516100f69190610b9d565b60405180910390f35b6101076105cf565b005b6101116105e2565b60405161011e9190610b9d565b60405180910390f35b61012f610609565b60405161013c9190610bce565b60405180910390f35b61015f600480360381019061015a9190610c11565b61060e565b60405161016c9190610cc1565b60405180910390f35b61018f600480360381019061018a9190610ce1565b61063d565b005b6101996106c1565b6040516101a69190610d67565b60405180910390f35b6101b76106e6565b600a8282905011156101f5576040517fabcf3d2300000000000000000000000000000000000000000000000000000000815260040160405180910390fd5b818190508686905014610234576040517f556ecf8f00000000000000000000000000000000000000000000000000000000815260040160405180910390fd5b818190508484905014610273576040517fa35f7e5700000000000000000000000000000000000000000000000000000000815260040160405180910390fd5b60015f9054906101000a900473ffffffffffffffffffffffffffffffffffffffff1673ffffffffffffffffffffffffffffffffffffffff1663e985e9c560025f9054906101000a900473ffffffffffffffffffffffffffffffffffffffff16306040518363ffffffff1660e01b81526004016102f0929190610d80565b602060405180830381865afa15801561030b573d5f5f3e3d5ffd5b505050506040513d601f19601f8201168201806040525081019061032f9190610dd1565b610365576040517f9bacfd9a00000000000000000000000000000000000000000000000000000000815260040160405180910390fd5b5f60025f9054906101000a900473ffffffffffffffffffffffffffffffffffffffff1690505f5f90505b8585905081101561048b5760015f9054906101000a900473ffffffffffffffffffffffffffffffffffffffff1673ffffffffffffffffffffffffffffffffffffffff1663f242432a838a8a858181106103eb576103ea610dfc565b5b90506020020160208101906104009190610ce1565b87878681811061041357610412610dfc565b5b905060200201358a8a8781811061042d5761042c610dfc565b5b905060200201356040518563ffffffff1660e01b81526004016104539493929190610e4c565b5f604051808303815f87803b15801561046a575f5ffd5b505af115801561047c573d5f5f3e3d5ffd5b5050505080600101905061038f565b5050505050505050565b5f600260149054906101000a900460ff16156104dd576040517f0dc149f000000000000000000000000000000000000000000000000000000000815260040160405180910390fd5b5f5f5f848060200190518101906104f49190610edd565b9250925092508260015f6101000a81548173ffffffffffffffffffffffffffffffffffffffff021916908373ffffffffffffffffffffffffffffffffffffffff1602179055508160025f6101000a81548173ffffffffffffffffffffffffffffffffffffffff021916908373ffffffffffffffffffffffffffffffffffffffff1602179055506105838161063d565b6001600260146101000a81548160ff02191690831515021790555060019350505050919050565b60025f9054906101000a900473ffffffffffffffffffffffffffffffffffffffff1681565b6105d76106e6565b6105e05f61076d565b565b5f5f5f9054906101000a900473ffffffffffffffffffffffffffffffffffffffff16905090565b600a81565b606083838360405160200161062593929190610f2d565b60405160208183030381529060405290509392505050565b6106456106e6565b5f73ffffffffffffffffffffffffffffffffffffffff168173ffffffffffffffffffffffffffffffffffffffff16036106b5575f6040517f1e4fbdf70000000000000000000000000000000000000000000000000000000081526004016106ac9190610b9d565b60405180910390fd5b6106be8161076d565b50565b60015f9054906101000a900473ffffffffffffffffffffffffffffffffffffffff1681565b6106ee61082e565b73ffffffffffffffffffffffffffffffffffffffff1661070c6105e2565b73ffffffffffffffffffffffffffffffffffffffff161461076b5761072f61082e565b6040517f118cdaa70000000000000000000000000000000000000000000000000000000081526004016107629190610b9d565b60405180910390fd5b565b5f5f5f9054906101000a900473ffffffffffffffffffffffffffffffffffffffff169050815f5f6101000a81548173ffffffffffffffffffffffffffffffffffffffff021916908373ffffffffffffffffffffffffffffffffffffffff1602179055508173ffffffffffffffffffffffffffffffffffffffff168173ffffffffffffffffffffffffffffffffffffffff167f8be0079c531659141344cd1fd0a4f28419497f9722a3daafe3b4186f6b6457e060405160405180910390a35050565b5f33905090565b5f604051905090565b5f5ffd5b5f5ffd5b5f5ffd5b5f5ffd5b5f5ffd5b5f5f83601f84011261086757610866610846565b5b8235905067ffffffffffffffff8111156108845761088361084a565b5b6020830191508360208202830111156108a05761089f61084e565b5b9250929050565b5f5f83601f8401126108bc576108bb610846565b5b8235905067ffffffffffffffff8111156108d9576108d861084a565b5b6020830191508360208202830111156108f5576108f461084e565b5b9250929050565b5f5f5f5f5f5f606087890312156109165761091561083e565b5b5f87013567ffffffffffffffff81111561093357610932610842565b5b61093f89828a01610852565b9650965050602087013567ffffffffffffffff81111561096257610961610842565b5b61096e89828a016108a7565b9450945050604087013567ffffffffffffffff81111561099157610990610842565b5b61099d89828a016108a7565b92509250509295509295509295565b5f5ffd5b5f601f19601f8301169050919050565b7f4e487b71000000000000000000000000000000000000000000000000000000005f52604160045260245ffd5b6109f6826109b0565b810181811067ffffffffffffffff82111715610a1557610a146109c0565b5b80604052505050565b5f610a27610835565b9050610a3382826109ed565b919050565b5f67ffffffffffffffff821115610a5257610a516109c0565b5b610a5b826109b0565b9050602081019050919050565b828183375f83830152505050565b5f610a88610a8384610a38565b610a1e565b905082815260208101848484011115610aa457610aa36109ac565b5b610aaf848285610a68565b509392505050565b5f82601f830112610acb57610aca610846565b5b8135610adb848260208601610a76565b91505092915050565b5f60208284031215610af957610af861083e565b5b5f82013567ffffffffffffffff811115610b1657610b15610842565b5b610b2284828501610ab7565b91505092915050565b5f8115159050919050565b610b3f81610b2b565b82525050565b5f602082019050610b585f830184610b36565b92915050565b5f73ffffffffffffffffffffffffffffffffffffffff82169050919050565b5f610b8782610b5e565b9050919050565b610b9781610b7d565b82525050565b5f602082019050610bb05f830184610b8e565b92915050565b5f819050919050565b610bc881610bb6565b82525050565b5f602082019050610be15f830184610bbf565b92915050565b610bf081610b7d565b8114610bfa575f5ffd5b50565b5f81359050610c0b81610be7565b92915050565b5f5f5f60608486031215610c2857610c2761083e565b5b5f610c3586828701610bfd565b9350506020610c4686828701610bfd565b9250506040610c5786828701610bfd565b9150509250925092565b5f81519050919050565b5f82825260208201905092915050565b8281835e5f83830152505050565b5f610c9382610c61565b610c9d8185610c6b565b9350610cad818560208601610c7b565b610cb6816109b0565b840191505092915050565b5f6020820190508181035f830152610cd98184610c89565b905092915050565b5f60208284031215610cf657610cf561083e565b5b5f610d0384828501610bfd565b91505092915050565b5f819050919050565b5f610d2f610d2a610d2584610b5e565b610d0c565b610b5e565b9050919050565b5f610d4082610d15565b9050919050565b5f610d5182610d36565b9050919050565b610d6181610d47565b82525050565b5f602082019050610d7a5f830184610d58565b92915050565b5f604082019050610d935f830185610b8e565b610da06020830184610b8e565b9392505050565b610db081610b2b565b8114610dba575f5ffd5b50565b5f81519050610dcb81610da7565b92915050565b5f60208284031215610de657610de561083e565b5b5f610df384828501610dbd565b91505092915050565b7f4e487b71000000000000000000000000000000000000000000000000000000005f52603260045260245ffd5b50565b5f610e375f83610c6b565b9150610e4282610e29565b5f82019050919050565b5f60a082019050610e5f5f830187610b8e565b610e6c6020830186610b8e565b610e796040830185610bbf565b610e866060830184610bbf565b8181036080830152610e9781610e2c565b905095945050505050565b5f610eac82610b5e565b9050919050565b610ebc81610ea2565b8114610ec6575f5ffd5b50565b5f81519050610ed781610eb3565b92915050565b5f5f5f60608486031215610ef457610ef361083e565b5b5f610f0186828701610ec9565b9350506020610f1286828701610ec9565b9250506040610f2386828701610ec9565b9150509250925092565b5f606082019050610f405f830186610b8e565b610f4d6020830185610b8e565b610f5a6040830184610b8e565b94935050505056fea2646970667358221220ec360b628c547cfa4a29672e1d7b2a1202cf5c4f0c9595081c5c4be046b060e564736f6c634300081d0033","linkReferences":{}},"methodIdentifiers":{"MAX_AIRDROP_BATCH_SIZE()":"b277332d","airdrop(address[],uint256[],uint256[])":"1bf2907b","getInitData(address,address,address)":"c475dda9","initialize(bytes)":"439fab91","owner()":"8da5cb5b","renounceOwnership()":"715018a6","token()":"fc0c546a","transferOwnership(address)":"f2fde38b","treasury()":"61d027b3"},"id":11}