{"abi":[{"type":"constructor","inputs":[],"stateMutability":"nonpayable"},{"type":"function","name":"airdrop","inputs":[{"name":"receivers","type":"address[]","internalType":"address[]"},{"name":"amounts","type":"uint256[]","internalType":"uint256[]"},{"name":"tokenId","type":"uint256[]","internalType":"uint256[]"}],"outputs":[],"stateMutability":"nonpayable"},{"type":"function","name":"getInitData","inputs":[{"name":"_token","type":"address","internalType":"address"},{"name":"_treasury","type":"address","internalType":"address"},{"name":"_owner","type":"address","internalType":"address"}],"outputs":[{"name":"","type":"bytes","internalType":"bytes"}],"stateMutability":"pure"},{"type":"function","name":"initialize","inputs":[{"name":"_initData","type":"bytes","internalType":"bytes"}],"outputs":[{"name":"","type":"bool","internalType":"bool"}],"stateMutability":"nonpayable"},{"type":"function","name":"owner","inputs":[],"outputs":[{"name":"","type":"address","internalType":"address"}],"stateMutability":"view"},{"type":"function","name":"renounceOwnership","inputs":[],"outputs":[],"stateMutability":"nonpayable"},{"type":"function","name":"token","inputs":[],"outputs":[{"name":"","type":"address","internalType":"contract IERC1155"}],"stateMutability":"view"},{"type":"function","name":"transferOwnership","inputs":[{"name":"newOwner","type":"address","internalType":"address"}],"outputs":[],"stateMutability":"nonpayable"},{"type":"function","name":"treasury","inputs":[],"outputs":[{"name":"","type":"address","internalType":"address"}],"stateMutability":"view"},{"type":"event","name":"OwnershipTransferred","inputs":[{"name":"previousOwner","type":"address","indexed":true,"internalType":"address"},{"name":"newOwner","type":"address","indexed":true,"internalType":"address"}],"anonymous":false},{"type":"error","name":"AlreadyInitialized","inputs":[]},{"type":"error","name":"ArraysLengthMismatch","inputs":[]},{"type":"error","name":"NeedToApproveTokens","inputs":[]},{"type":"error","name":"OwnableInvalidOwner","inputs":[{"name":"owner","type":"address","internalType":"address"}]},{"type":"error","name":"OwnableUnauthorizedAccount","inputs":[{"name":"account","type":"address","internalType":"address"}]}],"bytecode":{"object":"0x608060405234801561000f575f5ffd5b50335f73ffffffffffffffffffffffffffffffffffffffff168173ffffffffffffffffffffffffffffffffffffffff1603610081575f6040517f1e4fbdf70000000000000000000000000000000000000000000000000000000081526004016100789190610196565b60405180910390fd5b6100908161009660201b60201c565b506101af565b5f5f5f9054906101000a900473ffffffffffffffffffffffffffffffffffffffff169050815f5f6101000a81548173ffffffffffffffffffffffffffffffffffffffff021916908373ffffffffffffffffffffffffffffffffffffffff1602179055508173ffffffffffffffffffffffffffffffffffffffff168173ffffffffffffffffffffffffffffffffffffffff167f8be0079c531659141344cd1fd0a4f28419497f9722a3daafe3b4186f6b6457e060405160405180910390a35050565b5f73ffffffffffffffffffffffffffffffffffffffff82169050919050565b5f61018082610157565b9050919050565b61019081610176565b82525050565b5f6020820190506101a95f830184610187565b92915050565b610ee2806101bc5f395ff3fe608060405234801561000f575f5ffd5b5060043610610086575f3560e01c80638da5cb5b116100595780638da5cb5b146100fe578063c475dda91461011c578063f2fde38b1461014c578063fc0c546a1461016857610086565b80631bf2907b1461008a578063439fab91146100a657806361d027b3146100d6578063715018a6146100f4575b5f5ffd5b6100a4600480360381019061009f919061085f565b610186565b005b6100c060048036038101906100bb9190610a47565b6103fd565b6040516100cd9190610aa8565b60405180910390f35b6100de610512565b6040516100eb9190610b00565b60405180910390f35b6100fc610537565b005b61010661054a565b6040516101139190610b00565b60405180910390f35b61013660048036038101906101319190610b43565b610571565b6040516101439190610bf3565b60405180910390f35b61016660048036038101906101619190610c13565b6105a0565b005b610170610624565b60405161017d9190610c99565b60405180910390f35b61018e610649565b83839050868690501480156101a857508181905086869050145b6101de576040517ffc23596000000000000000000000000000000000000000000000000000000000815260040160405180910390fd5b60015f9054906101000a900473ffffffffffffffffffffffffffffffffffffffff1673ffffffffffffffffffffffffffffffffffffffff1663e985e9c560025f9054906101000a900473ffffffffffffffffffffffffffffffffffffffff16306040518363ffffffff1660e01b815260040161025b929190610cb2565b602060405180830381865afa158015610276573d5f5f3e3d5ffd5b505050506040513d601f19601f8201168201806040525081019061029a9190610d03565b6102d0576040517f9bacfd9a00000000000000000000000000000000000000000000000000000000815260040160405180910390fd5b5f5f90505b848490508110156103f45760015f9054906101000a900473ffffffffffffffffffffffffffffffffffffffff1673ffffffffffffffffffffffffffffffffffffffff1663f242432a60025f9054906101000a900473ffffffffffffffffffffffffffffffffffffffff1689898581811061035257610351610d2e565b5b90506020020160208101906103679190610c13565b86868681811061037a57610379610d2e565b5b9050602002013589898781811061039457610393610d2e565b5b905060200201356040518563ffffffff1660e01b81526004016103ba9493929190610d96565b5f604051808303815f87803b1580156103d1575f5ffd5b505af11580156103e3573d5f5f3e3d5ffd5b5050505080806001019150506102d5565b50505050505050565b5f600260149054906101000a900460ff1615610445576040517f0dc149f000000000000000000000000000000000000000000000000000000000815260040160405180910390fd5b5f5f5f8480602001905181019061045c9190610e27565b9250925092508260015f6101000a81548173ffffffffffffffffffffffffffffffffffffffff021916908373ffffffffffffffffffffffffffffffffffffffff1602179055508160025f6101000a81548173ffffffffffffffffffffffffffffffffffffffff021916908373ffffffffffffffffffffffffffffffffffffffff1602179055506104eb816105a0565b6001600260146101000a81548160ff02191690831515021790555060019350505050919050565b60025f9054906101000a900473ffffffffffffffffffffffffffffffffffffffff1681565b61053f610649565b6105485f6106d0565b565b5f5f5f9054906101000a900473ffffffffffffffffffffffffffffffffffffffff16905090565b606083838360405160200161058893929190610e77565b60405160208183030381529060405290509392505050565b6105a8610649565b5f73ffffffffffffffffffffffffffffffffffffffff168173ffffffffffffffffffffffffffffffffffffffff1603610618575f6040517f1e4fbdf700000000000000000000000000000000000000000000000000000000815260040161060f9190610b00565b60405180910390fd5b610621816106d0565b50565b60015f9054906101000a900473ffffffffffffffffffffffffffffffffffffffff1681565b610651610791565b73ffffffffffffffffffffffffffffffffffffffff1661066f61054a565b73ffffffffffffffffffffffffffffffffffffffff16146106ce57610692610791565b6040517f118cdaa70000000000000000000000000000000000000000000000000000000081526004016106c59190610b00565b60405180910390fd5b565b5f5f5f9054906101000a900473ffffffffffffffffffffffffffffffffffffffff169050815f5f6101000a81548173ffffffffffffffffffffffffffffffffffffffff021916908373ffffffffffffffffffffffffffffffffffffffff1602179055508173ffffffffffffffffffffffffffffffffffffffff168173ffffffffffffffffffffffffffffffffffffffff167f8be0079c531659141344cd1fd0a4f28419497f9722a3daafe3b4186f6b6457e060405160405180910390a35050565b5f33905090565b5f604051905090565b5f5ffd5b5f5ffd5b5f5ffd5b5f5ffd5b5f5ffd5b5f5f83601f8401126107ca576107c96107a9565b5b8235905067ffffffffffffffff8111156107e7576107e66107ad565b5b602083019150836020820283011115610803576108026107b1565b5b9250929050565b5f5f83601f84011261081f5761081e6107a9565b5b8235905067ffffffffffffffff81111561083c5761083b6107ad565b5b602083019150836020820283011115610858576108576107b1565b5b9250929050565b5f5f5f5f5f5f60608789031215610879576108786107a1565b5b5f87013567ffffffffffffffff811115610896576108956107a5565b5b6108a289828a016107b5565b9650965050602087013567ffffffffffffffff8111156108c5576108c46107a5565b5b6108d189828a0161080a565b9450945050604087013567ffffffffffffffff8111156108f4576108f36107a5565b5b61090089828a0161080a565b92509250509295509295509295565b5f5ffd5b5f601f19601f8301169050919050565b7f4e487b71000000000000000000000000000000000000000000000000000000005f52604160045260245ffd5b61095982610913565b810181811067ffffffffffffffff8211171561097857610977610923565b5b80604052505050565b5f61098a610798565b90506109968282610950565b919050565b5f67ffffffffffffffff8211156109b5576109b4610923565b5b6109be82610913565b9050602081019050919050565b828183375f83830152505050565b5f6109eb6109e68461099b565b610981565b905082815260208101848484011115610a0757610a0661090f565b5b610a128482856109cb565b509392505050565b5f82601f830112610a2e57610a2d6107a9565b5b8135610a3e8482602086016109d9565b91505092915050565b5f60208284031215610a5c57610a5b6107a1565b5b5f82013567ffffffffffffffff811115610a7957610a786107a5565b5b610a8584828501610a1a565b91505092915050565b5f8115159050919050565b610aa281610a8e565b82525050565b5f602082019050610abb5f830184610a99565b92915050565b5f73ffffffffffffffffffffffffffffffffffffffff82169050919050565b5f610aea82610ac1565b9050919050565b610afa81610ae0565b82525050565b5f602082019050610b135f830184610af1565b92915050565b610b2281610ae0565b8114610b2c575f5ffd5b50565b5f81359050610b3d81610b19565b92915050565b5f5f5f60608486031215610b5a57610b596107a1565b5b5f610b6786828701610b2f565b9350506020610b7886828701610b2f565b9250506040610b8986828701610b2f565b9150509250925092565b5f81519050919050565b5f82825260208201905092915050565b8281835e5f83830152505050565b5f610bc582610b93565b610bcf8185610b9d565b9350610bdf818560208601610bad565b610be881610913565b840191505092915050565b5f6020820190508181035f830152610c0b8184610bbb565b905092915050565b5f60208284031215610c2857610c276107a1565b5b5f610c3584828501610b2f565b91505092915050565b5f819050919050565b5f610c61610c5c610c5784610ac1565b610c3e565b610ac1565b9050919050565b5f610c7282610c47565b9050919050565b5f610c8382610c68565b9050919050565b610c9381610c79565b82525050565b5f602082019050610cac5f830184610c8a565b92915050565b5f604082019050610cc55f830185610af1565b610cd26020830184610af1565b9392505050565b610ce281610a8e565b8114610cec575f5ffd5b50565b5f81519050610cfd81610cd9565b92915050565b5f60208284031215610d1857610d176107a1565b5b5f610d2584828501610cef565b91505092915050565b7f4e487b71000000000000000000000000000000000000000000000000000000005f52603260045260245ffd5b5f819050919050565b610d6d81610d5b565b82525050565b50565b5f610d815f83610b9d565b9150610d8c82610d73565b5f82019050919050565b5f60a082019050610da95f830187610af1565b610db66020830186610af1565b610dc36040830185610d64565b610dd06060830184610d64565b8181036080830152610de181610d76565b905095945050505050565b5f610df682610ac1565b9050919050565b610e0681610dec565b8114610e10575f5ffd5b50565b5f81519050610e2181610dfd565b92915050565b5f5f5f60608486031215610e3e57610e3d6107a1565b5b5f610e4b86828701610e13565b9350506020610e5c86828701610e13565b9250506040610e6d86828701610e13565b9150509250925092565b5f606082019050610e8a5f830186610af1565b610e976020830185610af1565b610ea46040830184610af1565b94935050505056fea264697066735822122007d07b44b923e6b667ad6b8be104c6615bb608114acf389be3fa0cdaddbd5a8964736f6c634300081d0033","linkReferences":{}},"methodIdentifiers":{"airdrop(address[],uint256[],uint256[])":"1bf2907b","getInitData(address,address,address)":"c475dda9","initialize(bytes)":"439fab91","owner()":"8da5cb5b","renounceOwnership()":"715018a6","token()":"fc0c546a","transferOwnership(address)":"f2fde38b","treasury()":"61d027b3"},"id":20}