{"abi":[{"type":"constructor","inputs":[{"name":"beneficiary","type":"address","internalType":"address"},{"name":"startTimestamp","type":"uint64","internalType":"uint64"},{"name":"durationSeconds","type":"uint64","internalType":"uint64"}],"stateMutability":"payable"},{"type":"receive","stateMutability":"payable"},{"type":"function","name":"duration","inputs":[],"outputs":[{"name":"","type":"uint256","internalType":"uint256"}],"stateMutability":"view"},{"type":"function","name":"end","inputs":[],"outputs":[{"name":"","type":"uint256","internalType":"uint256"}],"stateMutability":"view"},{"type":"function","name":"owner","inputs":[],"outputs":[{"name":"","type":"address","internalType":"address"}],"stateMutability":"view"},{"type":"function","name":"releasable","inputs":[{"name":"token","type":"address","internalType":"address"}],"outputs":[{"name":"","type":"uint256","internalType":"uint256"}],"stateMutability":"view"},{"type":"function","name":"releasable","inputs":[],"outputs":[{"name":"","type":"uint256","internalType":"uint256"}],"stateMutability":"view"},{"type":"function","name":"release","inputs":[{"name":"token","type":"address","internalType":"address"}],"outputs":[],"stateMutability":"nonpayable"},{"type":"function","name":"release","inputs":[],"outputs":[],"stateMutability":"nonpayable"},{"type":"function","name":"released","inputs":[],"outputs":[{"name":"","type":"uint256","internalType":"uint256"}],"stateMutability":"view"},{"type":"function","name":"released","inputs":[{"name":"token","type":"address","internalType":"address"}],"outputs":[{"name":"","type":"uint256","internalType":"uint256"}],"stateMutability":"view"},{"type":"function","name":"renounceOwnership","inputs":[],"outputs":[],"stateMutability":"nonpayable"},{"type":"function","name":"start","inputs":[],"outputs":[{"name":"","type":"uint256","internalType":"uint256"}],"stateMutability":"view"},{"type":"function","name":"transferOwnership","inputs":[{"name":"newOwner","type":"address","internalType":"address"}],"outputs":[],"stateMutability":"nonpayable"},{"type":"function","name":"vestedAmount","inputs":[{"name":"timestamp","type":"uint64","internalType":"uint64"}],"outputs":[{"name":"","type":"uint256","internalType":"uint256"}],"stateMutability":"view"},{"type":"function","name":"vestedAmount","inputs":[{"name":"token","type":"address","internalType":"address"},{"name":"timestamp","type":"uint64","internalType":"uint64"}],"outputs":[{"name":"","type":"uint256","internalType":"uint256"}],"stateMutability":"view"},{"type":"event","name":"ERC20Released","inputs":[{"name":"token","type":"address","indexed":true,"internalType":"address"},{"name":"amount","type":"uint256","indexed":false,"internalType":"uint256"}],"anonymous":false},{"type":"event","name":"EtherReleased","inputs":[{"name":"amount","type":"uint256","indexed":false,"internalType":"uint256"}],"anonymous":false},{"type":"event","name":"OwnershipTransferred","inputs":[{"name":"previousOwner","type":"address","indexed":true,"internalType":"address"},{"name":"newOwner","type":"address","indexed":true,"internalType":"address"}],"anonymous":false},{"type":"error","name":"FailedCall","inputs":[]},{"type":"error","name":"InsufficientBalance","inputs":[{"name":"balance","type":"uint256","internalType":"uint256"},{"name":"needed","type":"uint256","internalType":"uint256"}]},{"type":"error","name":"OwnableInvalidOwner","inputs":[{"name":"owner","type":"address","internalType":"address"}]},{"type":"error","name":"OwnableUnauthorizedAccount","inputs":[{"name":"account","type":"address","internalType":"address"}]},{"type":"error","name":"SafeERC20FailedOperation","inputs":[{"name":"token","type":"address","internalType":"address"}]}],"bytecode":{"object":"0x60c06040526040516111c03803806111c083398181016040528101906100259190610242565b825f73ffffffffffffffffffffffffffffffffffffffff168173ffffffffffffffffffffffffffffffffffffffff1603610096575f6040517f1e4fbdf700000000000000000000000000000000000000000000000000000000815260040161008d91906102a1565b60405180910390fd5b6100a5816100e660201b60201c565b508167ffffffffffffffff1660808167ffffffffffffffff16815250508067ffffffffffffffff1660a08167ffffffffffffffff16815250505050506102ba565b5f5f5f9054906101000a900473ffffffffffffffffffffffffffffffffffffffff169050815f5f6101000a81548173ffffffffffffffffffffffffffffffffffffffff021916908373ffffffffffffffffffffffffffffffffffffffff1602179055508173ffffffffffffffffffffffffffffffffffffffff168173ffffffffffffffffffffffffffffffffffffffff167f8be0079c531659141344cd1fd0a4f28419497f9722a3daafe3b4186f6b6457e060405160405180910390a35050565b5f5ffd5b5f73ffffffffffffffffffffffffffffffffffffffff82169050919050565b5f6101d4826101ab565b9050919050565b6101e4816101ca565b81146101ee575f5ffd5b50565b5f815190506101ff816101db565b92915050565b5f67ffffffffffffffff82169050919050565b61022181610205565b811461022b575f5ffd5b50565b5f8151905061023c81610218565b92915050565b5f5f5f60608486031215610259576102586101a7565b5b5f610266868287016101f1565b93505060206102778682870161022e565b92505060406102888682870161022e565b9150509250925092565b61029b816101ca565b82525050565b5f6020820190506102b45f830184610292565b92915050565b60805160a051610ee56102db5f395f61037a01525f6106270152610ee55ff3fe6080604052600436106100e0575f3560e01c8063961325211161007e578063be9a655511610058578063be9a6555146102ad578063efbe1c1c146102d7578063f2fde38b14610301578063fbccedae14610329576100e7565b8063961325211461020b5780639852595c14610235578063a3f8eace14610271576100e7565b8063715018a6116100ba578063715018a614610179578063810ec23b1461018f57806386d1a69f146101cb5780638da5cb5b146101e1576100e7565b80630a17b06b146100eb5780630fb5a6b4146101275780631916558714610151576100e7565b366100e757005b5f5ffd5b3480156100f6575f5ffd5b50610111600480360381019061010c9190610b53565b610353565b60405161011e9190610b96565b60405180910390f35b348015610132575f5ffd5b5061013b610377565b6040516101489190610b96565b60405180910390f35b34801561015c575f5ffd5b5061017760048036038101906101729190610c09565b6103a8565b005b348015610184575f5ffd5b5061018d61046b565b005b34801561019a575f5ffd5b506101b560048036038101906101b09190610c34565b61047e565b6040516101c29190610b96565b60405180910390f35b3480156101d6575f5ffd5b506101df61051b565b005b3480156101ec575f5ffd5b506101f5610589565b6040516102029190610c81565b60405180910390f35b348015610216575f5ffd5b5061021f6105b0565b60405161022c9190610b96565b60405180910390f35b348015610240575f5ffd5b5061025b60048036038101906102569190610c09565b6105b9565b6040516102689190610b96565b60405180910390f35b34801561027c575f5ffd5b5061029760048036038101906102929190610c09565b6105ff565b6040516102a49190610b96565b60405180910390f35b3480156102b8575f5ffd5b506102c1610624565b6040516102ce9190610b96565b60405180910390f35b3480156102e2575f5ffd5b506102eb610655565b6040516102f89190610b96565b60405180910390f35b34801561030c575f5ffd5b5061032760048036038101906103229190610c09565b610675565b005b348015610334575f5ffd5b5061033d6106f9565b60405161034a9190610b96565b60405180910390f35b5f61037061035f6105b0565b4761036a9190610cc7565b8361071a565b9050919050565b5f7f000000000000000000000000000000000000000000000000000000000000000067ffffffffffffffff16905090565b5f6103b2826105ff565b90508060025f8473ffffffffffffffffffffffffffffffffffffffff1673ffffffffffffffffffffffffffffffffffffffff1681526020019081526020015f205f8282546104009190610cc7565b925050819055508173ffffffffffffffffffffffffffffffffffffffff167fc0e523490dd523c33b1878c9eb14ff46991e3f5b2cd33710918618f2a39cba1b8260405161044d9190610b96565b60405180910390a261046782610461610589565b8361079f565b5050565b61047361081e565b61047c5f6108a5565b565b5f61051361048b846105b9565b8473ffffffffffffffffffffffffffffffffffffffff166370a08231306040518263ffffffff1660e01b81526004016104c49190610c81565b602060405180830381865afa1580156104df573d5f5f3e3d5ffd5b505050506040513d601f19601f820116820180604052508101906105039190610d24565b61050d9190610cc7565b8361071a565b905092915050565b5f6105246106f9565b90508060015f8282546105379190610cc7565b925050819055507fda9d4e5f101b8b9b1c5b76d0c5a9f7923571acfc02376aa076b75a8c080c956b8160405161056d9190610b96565b60405180910390a1610586610580610589565b82610966565b50565b5f5f5f9054906101000a900473ffffffffffffffffffffffffffffffffffffffff16905090565b5f600154905090565b5f60025f8373ffffffffffffffffffffffffffffffffffffffff1673ffffffffffffffffffffffffffffffffffffffff1681526020019081526020015f20549050919050565b5f610609826105b9565b610613834261047e565b61061d9190610d4f565b9050919050565b5f7f000000000000000000000000000000000000000000000000000000000000000067ffffffffffffffff16905090565b5f61065e610377565b610666610624565b6106709190610cc7565b905090565b61067d61081e565b5f73ffffffffffffffffffffffffffffffffffffffff168173ffffffffffffffffffffffffffffffffffffffff16036106ed575f6040517f1e4fbdf70000000000000000000000000000000000000000000000000000000081526004016106e49190610c81565b60405180910390fd5b6106f6816108a5565b50565b5f6107026105b0565b61070b42610353565b6107159190610d4f565b905090565b5f610723610624565b8267ffffffffffffffff16101561073c575f9050610799565b610744610655565b8267ffffffffffffffff161061075c57829050610799565b610764610377565b61076c610624565b8367ffffffffffffffff166107819190610d4f565b8461078c9190610d82565b6107969190610df0565b90505b92915050565b610819838473ffffffffffffffffffffffffffffffffffffffff1663a9059cbb85856040516024016107d2929190610e20565b604051602081830303815290604052915060e01b6020820180517bffffffffffffffffffffffffffffffffffffffffffffffffffffffff8381831617835250505050610a2c565b505050565b610826610ac7565b73ffffffffffffffffffffffffffffffffffffffff16610844610589565b73ffffffffffffffffffffffffffffffffffffffff16146108a357610867610ac7565b6040517f118cdaa700000000000000000000000000000000000000000000000000000000815260040161089a9190610c81565b60405180910390fd5b565b5f5f5f9054906101000a900473ffffffffffffffffffffffffffffffffffffffff169050815f5f6101000a81548173ffffffffffffffffffffffffffffffffffffffff021916908373ffffffffffffffffffffffffffffffffffffffff1602179055508173ffffffffffffffffffffffffffffffffffffffff168173ffffffffffffffffffffffffffffffffffffffff167f8be0079c531659141344cd1fd0a4f28419497f9722a3daafe3b4186f6b6457e060405160405180910390a35050565b804710156109ad5747816040517fcf4791810000000000000000000000000000000000000000000000000000000081526004016109a4929190610e47565b60405180910390fd5b5f5f8373ffffffffffffffffffffffffffffffffffffffff16836040516109d390610e9b565b5f6040518083038185875af1925050503d805f8114610a0d576040519150601f19603f3d011682016040523d82523d5f602084013e610a12565b606091505b509150915081610a2657610a2581610ace565b5b50505050565b5f5f60205f8451602086015f885af180610a4b576040513d5f823e3d81fd5b3d92505f519150505f8214610a64576001811415610a7f565b5f8473ffffffffffffffffffffffffffffffffffffffff163b145b15610ac157836040517f5274afe7000000000000000000000000000000000000000000000000000000008152600401610ab89190610c81565b60405180910390fd5b50505050565b5f33905090565b5f81511115610ae05780518082602001fd5b6040517fd6bda27500000000000000000000000000000000000000000000000000000000815260040160405180910390fd5b5f5ffd5b5f67ffffffffffffffff82169050919050565b610b3281610b16565b8114610b3c575f5ffd5b50565b5f81359050610b4d81610b29565b92915050565b5f60208284031215610b6857610b67610b12565b5b5f610b7584828501610b3f565b91505092915050565b5f819050919050565b610b9081610b7e565b82525050565b5f602082019050610ba95f830184610b87565b92915050565b5f73ffffffffffffffffffffffffffffffffffffffff82169050919050565b5f610bd882610baf565b9050919050565b610be881610bce565b8114610bf2575f5ffd5b50565b5f81359050610c0381610bdf565b92915050565b5f60208284031215610c1e57610c1d610b12565b5b5f610c2b84828501610bf5565b91505092915050565b5f5f60408385031215610c4a57610c49610b12565b5b5f610c5785828601610bf5565b9250506020610c6885828601610b3f565b9150509250929050565b610c7b81610bce565b82525050565b5f602082019050610c945f830184610c72565b92915050565b7f4e487b71000000000000000000000000000000000000000000000000000000005f52601160045260245ffd5b5f610cd182610b7e565b9150610cdc83610b7e565b9250828201905080821115610cf457610cf3610c9a565b5b92915050565b610d0381610b7e565b8114610d0d575f5ffd5b50565b5f81519050610d1e81610cfa565b92915050565b5f60208284031215610d3957610d38610b12565b5b5f610d4684828501610d10565b91505092915050565b5f610d5982610b7e565b9150610d6483610b7e565b9250828203905081811115610d7c57610d7b610c9a565b5b92915050565b5f610d8c82610b7e565b9150610d9783610b7e565b9250828202610da581610b7e565b91508282048414831517610dbc57610dbb610c9a565b5b5092915050565b7f4e487b71000000000000000000000000000000000000000000000000000000005f52601260045260245ffd5b5f610dfa82610b7e565b9150610e0583610b7e565b925082610e1557610e14610dc3565b5b828204905092915050565b5f604082019050610e335f830185610c72565b610e406020830184610b87565b9392505050565b5f604082019050610e5a5f830185610b87565b610e676020830184610b87565b9392505050565b5f81905092915050565b50565b5f610e865f83610e6e565b9150610e9182610e78565b5f82019050919050565b5f610ea582610e7b565b915081905091905056fea26469706673582212200fcdd2cd203875e285e21084933660f317d07ba42cb8ab6b6daf5ba6fa1ec38464736f6c634300081d0033","linkReferences":{}},"methodIdentifiers":{"duration()":"0fb5a6b4","end()":"efbe1c1c","owner()":"8da5cb5b","releasable()":"fbccedae","releasable(address)":"a3f8eace","release()":"86d1a69f","release(address)":"19165587","released()":"96132521","released(address)":"9852595c","renounceOwnership()":"715018a6","start()":"be9a6555","transferOwnership(address)":"f2fde38b","vestedAmount(address,uint64)":"810ec23b","vestedAmount(uint64)":"0a17b06b"},"id":1}