{"abi":[{"type":"constructor","inputs":[],"stateMutability":"payable"},{"type":"function","name":"MAX_AIRDROP_BATCH_SIZE","inputs":[],"outputs":[{"name":"","type":"uint256","internalType":"uint256"}],"stateMutability":"view"},{"type":"function","name":"airdrop","inputs":[{"name":"receivers","type":"address[]","internalType":"address[]"},{"name":"amounts","type":"uint256[]","internalType":"uint256[]"}],"outputs":[],"stateMutability":"nonpayable"},{"type":"function","name":"amount","inputs":[],"outputs":[{"name":"","type":"uint256","internalType":"uint256"}],"stateMutability":"view"},{"type":"function","name":"deployManager","inputs":[],"outputs":[{"name":"","type":"address","internalType":"address"}],"stateMutability":"view"},{"type":"function","name":"getInitData","inputs":[{"name":"_token","type":"address","internalType":"address"},{"name":"_amount","type":"uint256","internalType":"uint256"},{"name":"_treasury","type":"address","internalType":"address"},{"name":"_owner","type":"address","internalType":"address"}],"outputs":[{"name":"","type":"bytes","internalType":"bytes"}],"stateMutability":"pure"},{"type":"function","name":"initialize","inputs":[{"name":"_initData","type":"bytes","internalType":"bytes"}],"outputs":[{"name":"","type":"bool","internalType":"bool"}],"stateMutability":"nonpayable"},{"type":"function","name":"owner","inputs":[],"outputs":[{"name":"","type":"address","internalType":"address"}],"stateMutability":"view"},{"type":"function","name":"renounceOwnership","inputs":[],"outputs":[],"stateMutability":"nonpayable"},{"type":"function","name":"token","inputs":[],"outputs":[{"name":"","type":"address","internalType":"contract IERC20"}],"stateMutability":"view"},{"type":"function","name":"transferOwnership","inputs":[{"name":"newOwner","type":"address","internalType":"address"}],"outputs":[],"stateMutability":"nonpayable"},{"type":"function","name":"treasury","inputs":[],"outputs":[{"name":"","type":"address","internalType":"address"}],"stateMutability":"view"},{"type":"event","name":"OwnershipTransferred","inputs":[{"name":"previousOwner","type":"address","indexed":true,"internalType":"address"},{"name":"newOwner","type":"address","indexed":true,"internalType":"address"}],"anonymous":false},{"type":"error","name":"AlreadyInitialized","inputs":[]},{"type":"error","name":"ArraysLengthMismatch","inputs":[]},{"type":"error","name":"BatchSizeExceeded","inputs":[]},{"type":"error","name":"NotEnoughApprovedTokens","inputs":[]},{"type":"error","name":"OwnableInvalidOwner","inputs":[{"name":"owner","type":"address","internalType":"address"}]},{"type":"error","name":"OwnableUnauthorizedAccount","inputs":[{"name":"account","type":"address","internalType":"address"}]},{"type":"error","name":"TransferFailed","inputs":[]}],"bytecode":{"object":"0x6080604052335f73ffffffffffffffffffffffffffffffffffffffff168173ffffffffffffffffffffffffffffffffffffffff1603610075575f6040517f1e4fbdf700000000000000000000000000000000000000000000000000000000815260040161006c919061018c565b60405180910390fd5b6100848161008a60201b60201c565b506101a5565b5f60015f9054906101000a900473ffffffffffffffffffffffffffffffffffffffff1690508160015f6101000a81548173ffffffffffffffffffffffffffffffffffffffff021916908373ffffffffffffffffffffffffffffffffffffffff1602179055508173ffffffffffffffffffffffffffffffffffffffff168173ffffffffffffffffffffffffffffffffffffffff167f8be0079c531659141344cd1fd0a4f28419497f9722a3daafe3b4186f6b6457e060405160405180910390a35050565b5f73ffffffffffffffffffffffffffffffffffffffff82169050919050565b5f6101768261014d565b9050919050565b6101868161016c565b82525050565b5f60208201905061019f5f83018461017d565b92915050565b611042806101b25f395ff3fe608060405234801561000f575f5ffd5b50600436106100a7575f3560e01c80638da5cb5b1161006f5780638da5cb5b1461014f578063933940291461016d578063aa8c217c1461018b578063b277332d146101a9578063f2fde38b146101c7578063fc0c546a146101e3576100a7565b80632bfc9e2b146100ab578063439fab91146100db57806361d027b31461010b5780636724348214610129578063715018a614610145575b5f5ffd5b6100c560048036038101906100c09190610954565b610201565b6040516100d29190610a28565b60405180910390f35b6100f560048036038101906100f09190610b74565b610233565b6040516101029190610bd5565b60405180910390f35b610113610353565b6040516101209190610bfd565b60405180910390f35b610143600480360381019061013e9190610cc8565b610378565b005b61014d610651565b005b610157610664565b6040516101649190610bfd565b60405180910390f35b61017561068c565b6040516101829190610bfd565b60405180910390f35b6101936106b0565b6040516101a09190610d55565b60405180910390f35b6101b16106b6565b6040516101be9190610d55565b60405180910390f35b6101e160048036038101906101dc9190610d6e565b6106bc565b005b6101eb610740565b6040516101f89190610df4565b60405180910390f35b60608484848460405160200161021a9493929190610e0d565b6040516020818303038152906040529050949350505050565b5f600460149054906101000a900460ff161561027b576040517f0dc149f000000000000000000000000000000000000000000000000000000000815260040160405180910390fd5b5f5f5f5f858060200190518101906102939190610e9f565b93509350935093508360025f6101000a81548173ffffffffffffffffffffffffffffffffffffffff021916908373ffffffffffffffffffffffffffffffffffffffff160217905550826003819055508160045f6101000a81548173ffffffffffffffffffffffffffffffffffffffff021916908373ffffffffffffffffffffffffffffffffffffffff16021790555061032b816106bc565b6001600460146101000a81548160ff0219169083151502179055506001945050505050919050565b60045f9054906101000a900473ffffffffffffffffffffffffffffffffffffffff1681565b610380610765565b61012c8484905011156103bf576040517fabcf3d2300000000000000000000000000000000000000000000000000000000815260040160405180910390fd5b8181905084849050146103fe576040517ffc23596000000000000000000000000000000000000000000000000000000000815260040160405180910390fd5b60035460025f9054906101000a900473ffffffffffffffffffffffffffffffffffffffff1673ffffffffffffffffffffffffffffffffffffffff1663dd62ed3e60045f9054906101000a900473ffffffffffffffffffffffffffffffffffffffff16306040518363ffffffff1660e01b815260040161047e929190610f03565b602060405180830381865afa158015610499573d5f5f3e3d5ffd5b505050506040513d601f19601f820116820180604052508101906104bd9190610f2a565b10156104f5576040517ff9174a0400000000000000000000000000000000000000000000000000000000815260040160405180910390fd5b5f60045f9054906101000a900473ffffffffffffffffffffffffffffffffffffffff1690505f5f90505b858590508110156106495760025f9054906101000a900473ffffffffffffffffffffffffffffffffffffffff1673ffffffffffffffffffffffffffffffffffffffff166323b872dd8388888581811061057b5761057a610f55565b5b90506020020160208101906105909190610d6e565b8787868181106105a3576105a2610f55565b5b905060200201356040518463ffffffff1660e01b81526004016105c893929190610f82565b6020604051808303815f875af11580156105e4573d5f5f3e3d5ffd5b505050506040513d601f19601f820116820180604052508101906106089190610fe1565b61063e576040517f90b8ec1800000000000000000000000000000000000000000000000000000000815260040160405180910390fd5b80600101905061051f565b505050505050565b610659610765565b6106625f6107ec565b565b5f60015f9054906101000a900473ffffffffffffffffffffffffffffffffffffffff16905090565b5f5f9054906101000a900473ffffffffffffffffffffffffffffffffffffffff1681565b60035481565b61012c81565b6106c4610765565b5f73ffffffffffffffffffffffffffffffffffffffff168173ffffffffffffffffffffffffffffffffffffffff1603610734575f6040517f1e4fbdf700000000000000000000000000000000000000000000000000000000815260040161072b9190610bfd565b60405180910390fd5b61073d816107ec565b50565b60025f9054906101000a900473ffffffffffffffffffffffffffffffffffffffff1681565b61076d6108af565b73ffffffffffffffffffffffffffffffffffffffff1661078b610664565b73ffffffffffffffffffffffffffffffffffffffff16146107ea576107ae6108af565b6040517f118cdaa70000000000000000000000000000000000000000000000000000000081526004016107e19190610bfd565b60405180910390fd5b565b5f60015f9054906101000a900473ffffffffffffffffffffffffffffffffffffffff1690508160015f6101000a81548173ffffffffffffffffffffffffffffffffffffffff021916908373ffffffffffffffffffffffffffffffffffffffff1602179055508173ffffffffffffffffffffffffffffffffffffffff168173ffffffffffffffffffffffffffffffffffffffff167f8be0079c531659141344cd1fd0a4f28419497f9722a3daafe3b4186f6b6457e060405160405180910390a35050565b5f33905090565b5f604051905090565b5f5ffd5b5f5ffd5b5f73ffffffffffffffffffffffffffffffffffffffff82169050919050565b5f6108f0826108c7565b9050919050565b610900816108e6565b811461090a575f5ffd5b50565b5f8135905061091b816108f7565b92915050565b5f819050919050565b61093381610921565b811461093d575f5ffd5b50565b5f8135905061094e8161092a565b92915050565b5f5f5f5f6080858703121561096c5761096b6108bf565b5b5f6109798782880161090d565b945050602061098a87828801610940565b935050604061099b8782880161090d565b92505060606109ac8782880161090d565b91505092959194509250565b5f81519050919050565b5f82825260208201905092915050565b8281835e5f83830152505050565b5f601f19601f8301169050919050565b5f6109fa826109b8565b610a0481856109c2565b9350610a148185602086016109d2565b610a1d816109e0565b840191505092915050565b5f6020820190508181035f830152610a4081846109f0565b905092915050565b5f5ffd5b5f5ffd5b7f4e487b71000000000000000000000000000000000000000000000000000000005f52604160045260245ffd5b610a86826109e0565b810181811067ffffffffffffffff82111715610aa557610aa4610a50565b5b80604052505050565b5f610ab76108b6565b9050610ac38282610a7d565b919050565b5f67ffffffffffffffff821115610ae257610ae1610a50565b5b610aeb826109e0565b9050602081019050919050565b828183375f83830152505050565b5f610b18610b1384610ac8565b610aae565b905082815260208101848484011115610b3457610b33610a4c565b5b610b3f848285610af8565b509392505050565b5f82601f830112610b5b57610b5a610a48565b5b8135610b6b848260208601610b06565b91505092915050565b5f60208284031215610b8957610b886108bf565b5b5f82013567ffffffffffffffff811115610ba657610ba56108c3565b5b610bb284828501610b47565b91505092915050565b5f8115159050919050565b610bcf81610bbb565b82525050565b5f602082019050610be85f830184610bc6565b92915050565b610bf7816108e6565b82525050565b5f602082019050610c105f830184610bee565b92915050565b5f5ffd5b5f5ffd5b5f5f83601f840112610c3357610c32610a48565b5b8235905067ffffffffffffffff811115610c5057610c4f610c16565b5b602083019150836020820283011115610c6c57610c6b610c1a565b5b9250929050565b5f5f83601f840112610c8857610c87610a48565b5b8235905067ffffffffffffffff811115610ca557610ca4610c16565b5b602083019150836020820283011115610cc157610cc0610c1a565b5b9250929050565b5f5f5f5f60408587031215610ce057610cdf6108bf565b5b5f85013567ffffffffffffffff811115610cfd57610cfc6108c3565b5b610d0987828801610c1e565b9450945050602085013567ffffffffffffffff811115610d2c57610d2b6108c3565b5b610d3887828801610c73565b925092505092959194509250565b610d4f81610921565b82525050565b5f602082019050610d685f830184610d46565b92915050565b5f60208284031215610d8357610d826108bf565b5b5f610d908482850161090d565b91505092915050565b5f819050919050565b5f610dbc610db7610db2846108c7565b610d99565b6108c7565b9050919050565b5f610dcd82610da2565b9050919050565b5f610dde82610dc3565b9050919050565b610dee81610dd4565b82525050565b5f602082019050610e075f830184610de5565b92915050565b5f608082019050610e205f830187610bee565b610e2d6020830186610d46565b610e3a6040830185610bee565b610e476060830184610bee565b95945050505050565b5f610e5a826108c7565b9050919050565b610e6a81610e50565b8114610e74575f5ffd5b50565b5f81519050610e8581610e61565b92915050565b5f81519050610e998161092a565b92915050565b5f5f5f5f60808587031215610eb757610eb66108bf565b5b5f610ec487828801610e77565b9450506020610ed587828801610e8b565b9350506040610ee687828801610e77565b9250506060610ef787828801610e77565b91505092959194509250565b5f604082019050610f165f830185610bee565b610f236020830184610bee565b9392505050565b5f60208284031215610f3f57610f3e6108bf565b5b5f610f4c84828501610e8b565b91505092915050565b7f4e487b71000000000000000000000000000000000000000000000000000000005f52603260045260245ffd5b5f606082019050610f955f830186610bee565b610fa26020830185610bee565b610faf6040830184610d46565b949350505050565b610fc081610bbb565b8114610fca575f5ffd5b50565b5f81519050610fdb81610fb7565b92915050565b5f60208284031215610ff657610ff56108bf565b5b5f61100384828501610fcd565b9150509291505056fea2646970667358221220dd72ec57e9ca4050f23178f23a909d545d1f7f228235199d8bf168a7d47c67bd64736f6c634300081d0033","linkReferences":{}},"methodIdentifiers":{"MAX_AIRDROP_BATCH_SIZE()":"b277332d","airdrop(address[],uint256[])":"67243482","amount()":"aa8c217c","deployManager()":"93394029","getInitData(address,uint256,address,address)":"2bfc9e2b","initialize(bytes)":"439fab91","owner()":"8da5cb5b","renounceOwnership()":"715018a6","token()":"fc0c546a","transferOwnership(address)":"f2fde38b","treasury()":"61d027b3"},"id":12}