{"abi":[{"type":"constructor","inputs":[],"stateMutability":"nonpayable"},{"type":"function","name":"airdrop","inputs":[{"name":"receivers","type":"address[]","internalType":"address[]"},{"name":"amounts","type":"uint256[]","internalType":"uint256[]"}],"outputs":[],"stateMutability":"nonpayable"},{"type":"function","name":"amount","inputs":[],"outputs":[{"name":"","type":"uint256","internalType":"uint256"}],"stateMutability":"view"},{"type":"function","name":"getInitData","inputs":[{"name":"_token","type":"address","internalType":"address"},{"name":"_amount","type":"uint256","internalType":"uint256"},{"name":"_treasury","type":"address","internalType":"address"},{"name":"_owner","type":"address","internalType":"address"}],"outputs":[{"name":"","type":"bytes","internalType":"bytes"}],"stateMutability":"pure"},{"type":"function","name":"initialize","inputs":[{"name":"_initData","type":"bytes","internalType":"bytes"}],"outputs":[{"name":"","type":"bool","internalType":"bool"}],"stateMutability":"nonpayable"},{"type":"function","name":"owner","inputs":[],"outputs":[{"name":"","type":"address","internalType":"address"}],"stateMutability":"view"},{"type":"function","name":"renounceOwnership","inputs":[],"outputs":[],"stateMutability":"nonpayable"},{"type":"function","name":"token","inputs":[],"outputs":[{"name":"","type":"address","internalType":"contract IERC20"}],"stateMutability":"view"},{"type":"function","name":"transferOwnership","inputs":[{"name":"newOwner","type":"address","internalType":"address"}],"outputs":[],"stateMutability":"nonpayable"},{"type":"function","name":"treasury","inputs":[],"outputs":[{"name":"","type":"address","internalType":"address"}],"stateMutability":"view"},{"type":"event","name":"OwnershipTransferred","inputs":[{"name":"previousOwner","type":"address","indexed":true,"internalType":"address"},{"name":"newOwner","type":"address","indexed":true,"internalType":"address"}],"anonymous":false},{"type":"error","name":"AlreadyInitialized","inputs":[]},{"type":"error","name":"ArraysLengthMismatch","inputs":[]},{"type":"error","name":"NotEnoughApprovedTokens","inputs":[]},{"type":"error","name":"OwnableInvalidOwner","inputs":[{"name":"owner","type":"address","internalType":"address"}]},{"type":"error","name":"OwnableUnauthorizedAccount","inputs":[{"name":"account","type":"address","internalType":"address"}]},{"type":"error","name":"TransferFailed","inputs":[]}],"bytecode":{"object":"0x608060405234801561000f575f5ffd5b50335f73ffffffffffffffffffffffffffffffffffffffff168173ffffffffffffffffffffffffffffffffffffffff1603610081575f6040517f1e4fbdf70000000000000000000000000000000000000000000000000000000081526004016100789190610196565b60405180910390fd5b6100908161009660201b60201c565b506101af565b5f5f5f9054906101000a900473ffffffffffffffffffffffffffffffffffffffff169050815f5f6101000a81548173ffffffffffffffffffffffffffffffffffffffff021916908373ffffffffffffffffffffffffffffffffffffffff1602179055508173ffffffffffffffffffffffffffffffffffffffff168173ffffffffffffffffffffffffffffffffffffffff167f8be0079c531659141344cd1fd0a4f28419497f9722a3daafe3b4186f6b6457e060405160405180910390a35050565b5f73ffffffffffffffffffffffffffffffffffffffff82169050919050565b5f61018082610157565b9050919050565b61019081610176565b82525050565b5f6020820190506101a95f830184610187565b92915050565b610f81806101bc5f395ff3fe608060405234801561000f575f5ffd5b5060043610610091575f3560e01c8063715018a611610064578063715018a61461012f5780638da5cb5b14610139578063aa8c217c14610157578063f2fde38b14610175578063fc0c546a1461019157610091565b80632bfc9e2b14610095578063439fab91146100c557806361d027b3146100f55780636724348214610113575b5f5ffd5b6100af60048036038101906100aa9190610893565b6101af565b6040516100bc9190610967565b60405180910390f35b6100df60048036038101906100da9190610ab3565b6101e1565b6040516100ec9190610b14565b60405180910390f35b6100fd610301565b60405161010a9190610b3c565b60405180910390f35b61012d60048036038101906101289190610c07565b610326565b005b6101376105bd565b005b6101416105d0565b60405161014e9190610b3c565b60405180910390f35b61015f6105f7565b60405161016c9190610c94565b60405180910390f35b61018f600480360381019061018a9190610cad565b6105fd565b005b610199610681565b6040516101a69190610d33565b60405180910390f35b6060848484846040516020016101c89493929190610d4c565b6040516020818303038152906040529050949350505050565b5f600360149054906101000a900460ff1615610229576040517f0dc149f000000000000000000000000000000000000000000000000000000000815260040160405180910390fd5b5f5f5f5f858060200190518101906102419190610dde565b93509350935093508360015f6101000a81548173ffffffffffffffffffffffffffffffffffffffff021916908373ffffffffffffffffffffffffffffffffffffffff160217905550826002819055508160035f6101000a81548173ffffffffffffffffffffffffffffffffffffffff021916908373ffffffffffffffffffffffffffffffffffffffff1602179055506102d9816105fd565b6001600360146101000a81548160ff0219169083151502179055506001945050505050919050565b60035f9054906101000a900473ffffffffffffffffffffffffffffffffffffffff1681565b61032e6106a6565b81819050848490501461036d576040517ffc23596000000000000000000000000000000000000000000000000000000000815260040160405180910390fd5b60025460015f9054906101000a900473ffffffffffffffffffffffffffffffffffffffff1673ffffffffffffffffffffffffffffffffffffffff1663dd62ed3e60035f9054906101000a900473ffffffffffffffffffffffffffffffffffffffff16306040518363ffffffff1660e01b81526004016103ed929190610e42565b602060405180830381865afa158015610408573d5f5f3e3d5ffd5b505050506040513d601f19601f8201168201806040525081019061042c9190610e69565b1015610464576040517ff9174a0400000000000000000000000000000000000000000000000000000000815260040160405180910390fd5b5f5f90505b848490508110156105b65760015f9054906101000a900473ffffffffffffffffffffffffffffffffffffffff1673ffffffffffffffffffffffffffffffffffffffff166323b872dd60035f9054906101000a900473ffffffffffffffffffffffffffffffffffffffff168787858181106104e6576104e5610e94565b5b90506020020160208101906104fb9190610cad565b86868681811061050e5761050d610e94565b5b905060200201356040518463ffffffff1660e01b815260040161053393929190610ec1565b6020604051808303815f875af115801561054f573d5f5f3e3d5ffd5b505050506040513d601f19601f820116820180604052508101906105739190610f20565b6105a9576040517f90b8ec1800000000000000000000000000000000000000000000000000000000815260040160405180910390fd5b8080600101915050610469565b5050505050565b6105c56106a6565b6105ce5f61072d565b565b5f5f5f9054906101000a900473ffffffffffffffffffffffffffffffffffffffff16905090565b60025481565b6106056106a6565b5f73ffffffffffffffffffffffffffffffffffffffff168173ffffffffffffffffffffffffffffffffffffffff1603610675575f6040517f1e4fbdf700000000000000000000000000000000000000000000000000000000815260040161066c9190610b3c565b60405180910390fd5b61067e8161072d565b50565b60015f9054906101000a900473ffffffffffffffffffffffffffffffffffffffff1681565b6106ae6107ee565b73ffffffffffffffffffffffffffffffffffffffff166106cc6105d0565b73ffffffffffffffffffffffffffffffffffffffff161461072b576106ef6107ee565b6040517f118cdaa70000000000000000000000000000000000000000000000000000000081526004016107229190610b3c565b60405180910390fd5b565b5f5f5f9054906101000a900473ffffffffffffffffffffffffffffffffffffffff169050815f5f6101000a81548173ffffffffffffffffffffffffffffffffffffffff021916908373ffffffffffffffffffffffffffffffffffffffff1602179055508173ffffffffffffffffffffffffffffffffffffffff168173ffffffffffffffffffffffffffffffffffffffff167f8be0079c531659141344cd1fd0a4f28419497f9722a3daafe3b4186f6b6457e060405160405180910390a35050565b5f33905090565b5f604051905090565b5f5ffd5b5f5ffd5b5f73ffffffffffffffffffffffffffffffffffffffff82169050919050565b5f61082f82610806565b9050919050565b61083f81610825565b8114610849575f5ffd5b50565b5f8135905061085a81610836565b92915050565b5f819050919050565b61087281610860565b811461087c575f5ffd5b50565b5f8135905061088d81610869565b92915050565b5f5f5f5f608085870312156108ab576108aa6107fe565b5b5f6108b88782880161084c565b94505060206108c98782880161087f565b93505060406108da8782880161084c565b92505060606108eb8782880161084c565b91505092959194509250565b5f81519050919050565b5f82825260208201905092915050565b8281835e5f83830152505050565b5f601f19601f8301169050919050565b5f610939826108f7565b6109438185610901565b9350610953818560208601610911565b61095c8161091f565b840191505092915050565b5f6020820190508181035f83015261097f818461092f565b905092915050565b5f5ffd5b5f5ffd5b7f4e487b71000000000000000000000000000000000000000000000000000000005f52604160045260245ffd5b6109c58261091f565b810181811067ffffffffffffffff821117156109e4576109e361098f565b5b80604052505050565b5f6109f66107f5565b9050610a0282826109bc565b919050565b5f67ffffffffffffffff821115610a2157610a2061098f565b5b610a2a8261091f565b9050602081019050919050565b828183375f83830152505050565b5f610a57610a5284610a07565b6109ed565b905082815260208101848484011115610a7357610a7261098b565b5b610a7e848285610a37565b509392505050565b5f82601f830112610a9a57610a99610987565b5b8135610aaa848260208601610a45565b91505092915050565b5f60208284031215610ac857610ac76107fe565b5b5f82013567ffffffffffffffff811115610ae557610ae4610802565b5b610af184828501610a86565b91505092915050565b5f8115159050919050565b610b0e81610afa565b82525050565b5f602082019050610b275f830184610b05565b92915050565b610b3681610825565b82525050565b5f602082019050610b4f5f830184610b2d565b92915050565b5f5ffd5b5f5ffd5b5f5f83601f840112610b7257610b71610987565b5b8235905067ffffffffffffffff811115610b8f57610b8e610b55565b5b602083019150836020820283011115610bab57610baa610b59565b5b9250929050565b5f5f83601f840112610bc757610bc6610987565b5b8235905067ffffffffffffffff811115610be457610be3610b55565b5b602083019150836020820283011115610c0057610bff610b59565b5b9250929050565b5f5f5f5f60408587031215610c1f57610c1e6107fe565b5b5f85013567ffffffffffffffff811115610c3c57610c3b610802565b5b610c4887828801610b5d565b9450945050602085013567ffffffffffffffff811115610c6b57610c6a610802565b5b610c7787828801610bb2565b925092505092959194509250565b610c8e81610860565b82525050565b5f602082019050610ca75f830184610c85565b92915050565b5f60208284031215610cc257610cc16107fe565b5b5f610ccf8482850161084c565b91505092915050565b5f819050919050565b5f610cfb610cf6610cf184610806565b610cd8565b610806565b9050919050565b5f610d0c82610ce1565b9050919050565b5f610d1d82610d02565b9050919050565b610d2d81610d13565b82525050565b5f602082019050610d465f830184610d24565b92915050565b5f608082019050610d5f5f830187610b2d565b610d6c6020830186610c85565b610d796040830185610b2d565b610d866060830184610b2d565b95945050505050565b5f610d9982610806565b9050919050565b610da981610d8f565b8114610db3575f5ffd5b50565b5f81519050610dc481610da0565b92915050565b5f81519050610dd881610869565b92915050565b5f5f5f5f60808587031215610df657610df56107fe565b5b5f610e0387828801610db6565b9450506020610e1487828801610dca565b9350506040610e2587828801610db6565b9250506060610e3687828801610db6565b91505092959194509250565b5f604082019050610e555f830185610b2d565b610e626020830184610b2d565b9392505050565b5f60208284031215610e7e57610e7d6107fe565b5b5f610e8b84828501610dca565b91505092915050565b7f4e487b71000000000000000000000000000000000000000000000000000000005f52603260045260245ffd5b5f606082019050610ed45f830186610b2d565b610ee16020830185610b2d565b610eee6040830184610c85565b949350505050565b610eff81610afa565b8114610f09575f5ffd5b50565b5f81519050610f1a81610ef6565b92915050565b5f60208284031215610f3557610f346107fe565b5b5f610f4284828501610f0c565b9150509291505056fea2646970667358221220267275e784aeb255cc3b031f5b8c93f72533322d58b25523005df0c13725fcc264736f6c634300081d0033","linkReferences":{}},"methodIdentifiers":{"airdrop(address[],uint256[])":"67243482","amount()":"aa8c217c","getInitData(address,uint256,address,address)":"2bfc9e2b","initialize(bytes)":"439fab91","owner()":"8da5cb5b","renounceOwnership()":"715018a6","token()":"fc0c546a","transferOwnership(address)":"f2fde38b","treasury()":"61d027b3"},"id":21}