{"abi":[{"type":"constructor","inputs":[],"stateMutability":"payable"},{"type":"function","name":"activateContract","inputs":[{"name":"_address","type":"address","internalType":"address"}],"outputs":[],"stateMutability":"nonpayable"},{"type":"function","name":"addNewContract","inputs":[{"name":"_contractAddress","type":"address","internalType":"address"},{"name":"_fee","type":"uint256","internalType":"uint256"},{"name":"_isActive","type":"bool","internalType":"bool"}],"outputs":[],"stateMutability":"nonpayable"},{"type":"function","name":"contractsData","inputs":[{"name":"","type":"address","internalType":"address"}],"outputs":[{"name":"fee","type":"uint256","internalType":"uint256"},{"name":"isActive","type":"bool","internalType":"bool"},{"name":"registredAt","type":"uint256","internalType":"uint256"}],"stateMutability":"view"},{"type":"function","name":"deactivateContract","inputs":[{"name":"_address","type":"address","internalType":"address"}],"outputs":[],"stateMutability":"nonpayable"},{"type":"function","name":"deploy","inputs":[{"name":"_utilityContract","type":"address","internalType":"address"},{"name":"_initData","type":"bytes","internalType":"bytes"}],"outputs":[{"name":"","type":"address","internalType":"address"}],"stateMutability":"payable"},{"type":"function","name":"deployedContracts","inputs":[{"name":"","type":"address","internalType":"address"},{"name":"","type":"uint256","internalType":"uint256"}],"outputs":[{"name":"","type":"address","internalType":"address"}],"stateMutability":"view"},{"type":"function","name":"owner","inputs":[],"outputs":[{"name":"","type":"address","internalType":"address"}],"stateMutability":"view"},{"type":"function","name":"renounceOwnership","inputs":[],"outputs":[],"stateMutability":"nonpayable"},{"type":"function","name":"transferOwnership","inputs":[{"name":"newOwner","type":"address","internalType":"address"}],"outputs":[],"stateMutability":"nonpayable"},{"type":"function","name":"updateFee","inputs":[{"name":"_contractAddress","type":"address","internalType":"address"},{"name":"_newFee","type":"uint256","internalType":"uint256"}],"outputs":[],"stateMutability":"nonpayable"},{"type":"event","name":"ContractFeeUpdated","inputs":[{"name":"_contractAddress","type":"address","indexed":true,"internalType":"address"},{"name":"_oldFee","type":"uint256","indexed":false,"internalType":"uint256"},{"name":"_newFee","type":"uint256","indexed":false,"internalType":"uint256"},{"name":"_timestamp","type":"uint256","indexed":false,"internalType":"uint256"}],"anonymous":false},{"type":"event","name":"ContractStatusUpdated","inputs":[{"name":"_contractAddress","type":"address","indexed":true,"internalType":"address"},{"name":"_isActive","type":"bool","indexed":false,"internalType":"bool"},{"name":"_timestamp","type":"uint256","indexed":false,"internalType":"uint256"}],"anonymous":false},{"type":"event","name":"NewContractAdded","inputs":[{"name":"_contractAddress","type":"address","indexed":true,"internalType":"address"},{"name":"_fee","type":"uint256","indexed":false,"internalType":"uint256"},{"name":"_isActive","type":"bool","indexed":false,"internalType":"bool"},{"name":"_timestamp","type":"uint256","indexed":false,"internalType":"uint256"}],"anonymous":false},{"type":"event","name":"NewDeployment","inputs":[{"name":"_deployer","type":"address","indexed":true,"internalType":"address"},{"name":"_contractAddress","type":"address","indexed":true,"internalType":"address"},{"name":"_fee","type":"uint256","indexed":false,"internalType":"uint256"},{"name":"_timestamp","type":"uint256","indexed":false,"internalType":"uint256"}],"anonymous":false},{"type":"event","name":"OwnershipTransferred","inputs":[{"name":"previousOwner","type":"address","indexed":true,"internalType":"address"},{"name":"newOwner","type":"address","indexed":true,"internalType":"address"}],"anonymous":false},{"type":"error","name":"ContractDoesNotRegistered","inputs":[]},{"type":"error","name":"ContractNotActive","inputs":[]},{"type":"error","name":"FailedDeployment","inputs":[]},{"type":"error","name":"InitializationFailed","inputs":[]},{"type":"error","name":"InsufficientBalance","inputs":[{"name":"balance","type":"uint256","internalType":"uint256"},{"name":"needed","type":"uint256","internalType":"uint256"}]},{"type":"error","name":"NotEnoughtFunds","inputs":[]},{"type":"error","name":"OwnableInvalidOwner","inputs":[{"name":"owner","type":"address","internalType":"address"}]},{"type":"error","name":"OwnableUnauthorizedAccount","inputs":[{"name":"account","type":"address","internalType":"address"}]}],"bytecode":{"object":"0x6080604052335f73ffffffffffffffffffffffffffffffffffffffff168173ffffffffffffffffffffffffffffffffffffffff1603610075575f6040517f1e4fbdf700000000000000000000000000000000000000000000000000000000815260040161006c919061018a565b60405180910390fd5b6100848161008a60201b60201c565b506101a3565b5f5f5f9054906101000a900473ffffffffffffffffffffffffffffffffffffffff169050815f5f6101000a81548173ffffffffffffffffffffffffffffffffffffffff021916908373ffffffffffffffffffffffffffffffffffffffff1602179055508173ffffffffffffffffffffffffffffffffffffffff168173ffffffffffffffffffffffffffffffffffffffff167f8be0079c531659141344cd1fd0a4f28419497f9722a3daafe3b4186f6b6457e060405160405180910390a35050565b5f73ffffffffffffffffffffffffffffffffffffffff82169050919050565b5f6101748261014b565b9050919050565b6101848161016a565b82525050565b5f60208201905061019d5f83018461017b565b92915050565b6111ec806101b05f395ff3fe608060405260043610610090575f3560e01c8063715018a611610058578063715018a6146101865780638da5cb5b1461019c57806394be7197146101c6578063e97fac05146101ee578063f2fde38b1461021e57610090565b80630d159b3f1461009457806331a76535146100bc57806345967555146100e45780634d58045314610120578063670cec371461015e575b5f5ffd5b34801561009f575f5ffd5b506100ba60048036038101906100b59190610e86565b610246565b005b3480156100c7575f5ffd5b506100e260048036038101906100dd9190610ed6565b610333565b005b3480156100ef575f5ffd5b5061010a60048036038101906101059190610f01565b61045e565b6040516101179190610f4e565b60405180910390f35b34801561012b575f5ffd5b5061014660048036038101906101419190610ed6565b6104a6565b60405161015593929190610f85565b60405180910390f35b348015610169575f5ffd5b50610184600480360381019061017f9190610ed6565b6104d8565b005b348015610191575f5ffd5b5061019a610605565b005b3480156101a7575f5ffd5b506101b0610618565b6040516101bd9190610f4e565b60405180910390f35b3480156101d1575f5ffd5b506101ec60048036038101906101e79190610f01565b61063f565b005b6102086004803603810190610203919061101b565b61079e565b6040516102159190610f4e565b60405180910390f35b348015610229575f5ffd5b50610244600480360381019061023f9190610ed6565b610ae2565b005b61024e610b66565b604051806060016040528083815260200182151581526020014281525060025f8573ffffffffffffffffffffffffffffffffffffffff1673ffffffffffffffffffffffffffffffffffffffff1681526020019081526020015f205f820151815f01556020820151816001015f6101000a81548160ff021916908315150217905550604082015181600201559050508273ffffffffffffffffffffffffffffffffffffffff167f04e5c77ae4e9e5b61ff3abeac1936c96fbd58c0bd1465c73362dccfeb31ee75a83834260405161032693929190610f85565b60405180910390a2505050565b61033b610b66565b5f60025f8373ffffffffffffffffffffffffffffffffffffffff1673ffffffffffffffffffffffffffffffffffffffff1681526020019081526020015f2060020154116103b4576040517fe87feefd00000000000000000000000000000000000000000000000000000000815260040160405180910390fd5b5f60025f8373ffffffffffffffffffffffffffffffffffffffff1673ffffffffffffffffffffffffffffffffffffffff1681526020019081526020015f206001015f6101000a81548160ff0219169083151502179055508073ffffffffffffffffffffffffffffffffffffffff167f434ee15f55ff3aeee926d0d2cdc10861189dfdc47305a9ea5d0504102c4085155f42604051610453929190611078565b60405180910390a250565b6001602052815f5260405f208181548110610477575f80fd5b905f5260205f20015f915091509054906101000a900473ffffffffffffffffffffffffffffffffffffffff1681565b6002602052805f5260405f205f91509050805f015490806001015f9054906101000a900460ff16908060020154905083565b6104e0610b66565b5f60025f8373ffffffffffffffffffffffffffffffffffffffff1673ffffffffffffffffffffffffffffffffffffffff1681526020019081526020015f206002015411610559576040517fe87feefd00000000000000000000000000000000000000000000000000000000815260040160405180910390fd5b600160025f8373ffffffffffffffffffffffffffffffffffffffff1673ffffffffffffffffffffffffffffffffffffffff1681526020019081526020015f206001015f6101000a81548160ff0219169083151502179055508073ffffffffffffffffffffffffffffffffffffffff167f434ee15f55ff3aeee926d0d2cdc10861189dfdc47305a9ea5d0504102c4085156001426040516105fa929190611078565b60405180910390a250565b61060d610b66565b6106165f610bed565b565b5f5f5f9054906101000a900473ffffffffffffffffffffffffffffffffffffffff16905090565b610647610b66565b5f60025f8473ffffffffffffffffffffffffffffffffffffffff1673ffffffffffffffffffffffffffffffffffffffff1681526020019081526020015f2060020154116106c0576040517fe87feefd00000000000000000000000000000000000000000000000000000000815260040160405180910390fd5b5f60025f8473ffffffffffffffffffffffffffffffffffffffff1673ffffffffffffffffffffffffffffffffffffffff1681526020019081526020015f205f015490508160025f8573ffffffffffffffffffffffffffffffffffffffff1673ffffffffffffffffffffffffffffffffffffffff1681526020019081526020015f205f01819055508273ffffffffffffffffffffffffffffffffffffffff167fae754cde05a89e748dcec68ddb7845dfa44d041f114d95bf8d37338b6e0c9a5d8284426040516107919392919061109f565b60405180910390a2505050565b5f5f60025f8673ffffffffffffffffffffffffffffffffffffffff1673ffffffffffffffffffffffffffffffffffffffff1681526020019081526020015f206040518060600160405290815f8201548152602001600182015f9054906101000a900460ff1615151515815260200160028201548152505090508060200151610852576040517f4e00e51300000000000000000000000000000000000000000000000000000000815260040160405180910390fd5b805f015134101561088f576040517fc1463a4000000000000000000000000000000000000000000000000000000000815260040160405180910390fd5b5f8160400151116108cc576040517fe87feefd00000000000000000000000000000000000000000000000000000000815260040160405180910390fd5b5f6108d686610cae565b90508073ffffffffffffffffffffffffffffffffffffffff1663439fab9186866040518363ffffffff1660e01b815260040161091392919061112e565b6020604051808303815f875af115801561092f573d5f5f3e3d5ffd5b505050506040513d601f19601f820116820180604052508101906109539190611164565b610989576040517f19b991a800000000000000000000000000000000000000000000000000000000815260040160405180910390fd5b610991610618565b73ffffffffffffffffffffffffffffffffffffffff166108fc3490811502906040515f60405180830381858888f193505050501580156109d3573d5f5f3e3d5ffd5b5060015f3373ffffffffffffffffffffffffffffffffffffffff1673ffffffffffffffffffffffffffffffffffffffff1681526020019081526020015f2081908060018154018082558091505060019003905f5260205f20015f9091909190916101000a81548173ffffffffffffffffffffffffffffffffffffffff021916908373ffffffffffffffffffffffffffffffffffffffff1602179055508073ffffffffffffffffffffffffffffffffffffffff163373ffffffffffffffffffffffffffffffffffffffff167f4335dea2303bafa4bcabf73562ea6cf86520c11cda707391eac6afaf50c46ab83442604051610ace92919061118f565b60405180910390a380925050509392505050565b610aea610b66565b5f73ffffffffffffffffffffffffffffffffffffffff168173ffffffffffffffffffffffffffffffffffffffff1603610b5a575f6040517f1e4fbdf7000000000000000000000000000000000000000000000000000000008152600401610b519190610f4e565b60405180910390fd5b610b6381610bed565b50565b610b6e610cc0565b73ffffffffffffffffffffffffffffffffffffffff16610b8c610618565b73ffffffffffffffffffffffffffffffffffffffff1614610beb57610baf610cc0565b6040517f118cdaa7000000000000000000000000000000000000000000000000000000008152600401610be29190610f4e565b60405180910390fd5b565b5f5f5f9054906101000a900473ffffffffffffffffffffffffffffffffffffffff169050815f5f6101000a81548173ffffffffffffffffffffffffffffffffffffffff021916908373ffffffffffffffffffffffffffffffffffffffff1602179055508173ffffffffffffffffffffffffffffffffffffffff168173ffffffffffffffffffffffffffffffffffffffff167f8be0079c531659141344cd1fd0a4f28419497f9722a3daafe3b4186f6b6457e060405160405180910390a35050565b5f610cb9825f610cc7565b9050919050565b5f33905090565b5f81471015610d0f5747826040517fcf479181000000000000000000000000000000000000000000000000000000008152600401610d0692919061118f565b60405180910390fd5b763d602d80600a3d3981f3363d3d373d3d3d363d730000008360601b60e81c175f526e5af43d82803e903d91602b57fd5bf38360781b176020526037600983f090505f73ffffffffffffffffffffffffffffffffffffffff168173ffffffffffffffffffffffffffffffffffffffff1603610db6576040517fb06ebf3d00000000000000000000000000000000000000000000000000000000815260040160405180910390fd5b92915050565b5f5ffd5b5f5ffd5b5f73ffffffffffffffffffffffffffffffffffffffff82169050919050565b5f610ded82610dc4565b9050919050565b610dfd81610de3565b8114610e07575f5ffd5b50565b5f81359050610e1881610df4565b92915050565b5f819050919050565b610e3081610e1e565b8114610e3a575f5ffd5b50565b5f81359050610e4b81610e27565b92915050565b5f8115159050919050565b610e6581610e51565b8114610e6f575f5ffd5b50565b5f81359050610e8081610e5c565b92915050565b5f5f5f60608486031215610e9d57610e9c610dbc565b5b5f610eaa86828701610e0a565b9350506020610ebb86828701610e3d565b9250506040610ecc86828701610e72565b9150509250925092565b5f60208284031215610eeb57610eea610dbc565b5b5f610ef884828501610e0a565b91505092915050565b5f5f60408385031215610f1757610f16610dbc565b5b5f610f2485828601610e0a565b9250506020610f3585828601610e3d565b9150509250929050565b610f4881610de3565b82525050565b5f602082019050610f615f830184610f3f565b92915050565b610f7081610e1e565b82525050565b610f7f81610e51565b82525050565b5f606082019050610f985f830186610f67565b610fa56020830185610f76565b610fb26040830184610f67565b949350505050565b5f5ffd5b5f5ffd5b5f5ffd5b5f5f83601f840112610fdb57610fda610fba565b5b8235905067ffffffffffffffff811115610ff857610ff7610fbe565b5b60208301915083600182028301111561101457611013610fc2565b5b9250929050565b5f5f5f6040848603121561103257611031610dbc565b5b5f61103f86828701610e0a565b935050602084013567ffffffffffffffff8111156110605761105f610dc0565b5b61106c86828701610fc6565b92509250509250925092565b5f60408201905061108b5f830185610f76565b6110986020830184610f67565b9392505050565b5f6060820190506110b25f830186610f67565b6110bf6020830185610f67565b6110cc6040830184610f67565b949350505050565b5f82825260208201905092915050565b828183375f83830152505050565b5f601f19601f8301169050919050565b5f61110d83856110d4565b935061111a8385846110e4565b611123836110f2565b840190509392505050565b5f6020820190508181035f830152611147818486611102565b90509392505050565b5f8151905061115e81610e5c565b92915050565b5f6020828403121561117957611178610dbc565b5b5f61118684828501611150565b91505092915050565b5f6040820190506111a25f830185610f67565b6111af6020830184610f67565b939250505056fea2646970667358221220832a0923e818a12d79bd9d19695514838a2434158ddbac99666ac7e187b9f68364736f6c634300081d0033","linkReferences":{}},"methodIdentifiers":{"activateContract(address)":"670cec37","addNewContract(address,uint256,bool)":"0d159b3f","contractsData(address)":"4d580453","deactivateContract(address)":"31a76535","deploy(address,bytes)":"e97fac05","deployedContracts(address,uint256)":"45967555","owner()":"8da5cb5b","renounceOwnership()":"715018a6","transferOwnership(address)":"f2fde38b","updateFee(address,uint256)":"94be7197"},"id":9}