{"abi":[{"type":"constructor","inputs":[],"stateMutability":"nonpayable"},{"type":"function","name":"activateContract","inputs":[{"name":"_address","type":"address","internalType":"address"}],"outputs":[],"stateMutability":"nonpayable"},{"type":"function","name":"addNewContract","inputs":[{"name":"_contractAddress","type":"address","internalType":"address"},{"name":"_fee","type":"uint256","internalType":"uint256"},{"name":"_isActive","type":"bool","internalType":"bool"}],"outputs":[],"stateMutability":"nonpayable"},{"type":"function","name":"contractsData","inputs":[{"name":"","type":"address","internalType":"address"}],"outputs":[{"name":"fee","type":"uint256","internalType":"uint256"},{"name":"isActive","type":"bool","internalType":"bool"},{"name":"registredAt","type":"uint256","internalType":"uint256"}],"stateMutability":"view"},{"type":"function","name":"deactivateContract","inputs":[{"name":"_address","type":"address","internalType":"address"}],"outputs":[],"stateMutability":"nonpayable"},{"type":"function","name":"deploy","inputs":[{"name":"_utilityContract","type":"address","internalType":"address"},{"name":"_initData","type":"bytes","internalType":"bytes"}],"outputs":[{"name":"","type":"address","internalType":"address"}],"stateMutability":"payable"},{"type":"function","name":"deployedContracts","inputs":[{"name":"","type":"address","internalType":"address"},{"name":"","type":"uint256","internalType":"uint256"}],"outputs":[{"name":"","type":"address","internalType":"address"}],"stateMutability":"view"},{"type":"function","name":"owner","inputs":[],"outputs":[{"name":"","type":"address","internalType":"address"}],"stateMutability":"view"},{"type":"function","name":"renounceOwnership","inputs":[],"outputs":[],"stateMutability":"nonpayable"},{"type":"function","name":"transferOwnership","inputs":[{"name":"newOwner","type":"address","internalType":"address"}],"outputs":[],"stateMutability":"nonpayable"},{"type":"function","name":"updateFee","inputs":[{"name":"_contractAddress","type":"address","internalType":"address"},{"name":"_newFee","type":"uint256","internalType":"uint256"}],"outputs":[],"stateMutability":"nonpayable"},{"type":"event","name":"ContractFeeUpdated","inputs":[{"name":"_contractAddress","type":"address","indexed":false,"internalType":"address"},{"name":"_oldFee","type":"uint256","indexed":false,"internalType":"uint256"},{"name":"_newFee","type":"uint256","indexed":false,"internalType":"uint256"},{"name":"_timestamp","type":"uint256","indexed":false,"internalType":"uint256"}],"anonymous":false},{"type":"event","name":"ContractStatusUpdated","inputs":[{"name":"_contractAddress","type":"address","indexed":false,"internalType":"address"},{"name":"_isActive","type":"bool","indexed":false,"internalType":"bool"},{"name":"_timestamp","type":"uint256","indexed":false,"internalType":"uint256"}],"anonymous":false},{"type":"event","name":"NewContractAdded","inputs":[{"name":"_contractAddress","type":"address","indexed":false,"internalType":"address"},{"name":"_fee","type":"uint256","indexed":false,"internalType":"uint256"},{"name":"_isActive","type":"bool","indexed":false,"internalType":"bool"},{"name":"_timestamp","type":"uint256","indexed":false,"internalType":"uint256"}],"anonymous":false},{"type":"event","name":"NewDeployment","inputs":[{"name":"_deployer","type":"address","indexed":false,"internalType":"address"},{"name":"_contractAddress","type":"address","indexed":false,"internalType":"address"},{"name":"_fee","type":"uint256","indexed":false,"internalType":"uint256"},{"name":"_timestamp","type":"uint256","indexed":false,"internalType":"uint256"}],"anonymous":false},{"type":"event","name":"OwnershipTransferred","inputs":[{"name":"previousOwner","type":"address","indexed":true,"internalType":"address"},{"name":"newOwner","type":"address","indexed":true,"internalType":"address"}],"anonymous":false},{"type":"error","name":"ContractDoesNotRegistered","inputs":[]},{"type":"error","name":"ContractNotActive","inputs":[]},{"type":"error","name":"FailedDeployment","inputs":[]},{"type":"error","name":"InitializationFailed","inputs":[]},{"type":"error","name":"InsufficientBalance","inputs":[{"name":"balance","type":"uint256","internalType":"uint256"},{"name":"needed","type":"uint256","internalType":"uint256"}]},{"type":"error","name":"NotEnoughtFunds","inputs":[]},{"type":"error","name":"OwnableInvalidOwner","inputs":[{"name":"owner","type":"address","internalType":"address"}]},{"type":"error","name":"OwnableUnauthorizedAccount","inputs":[{"name":"account","type":"address","internalType":"address"}]}],"bytecode":{"object":"0x608060405234801561000f575f5ffd5b50335f73ffffffffffffffffffffffffffffffffffffffff168173ffffffffffffffffffffffffffffffffffffffff1603610081575f6040517f1e4fbdf70000000000000000000000000000000000000000000000000000000081526004016100789190610196565b60405180910390fd5b6100908161009660201b60201c565b506101af565b5f5f5f9054906101000a900473ffffffffffffffffffffffffffffffffffffffff169050815f5f6101000a81548173ffffffffffffffffffffffffffffffffffffffff021916908373ffffffffffffffffffffffffffffffffffffffff1602179055508173ffffffffffffffffffffffffffffffffffffffff168173ffffffffffffffffffffffffffffffffffffffff167f8be0079c531659141344cd1fd0a4f28419497f9722a3daafe3b4186f6b6457e060405160405180910390a35050565b5f73ffffffffffffffffffffffffffffffffffffffff82169050919050565b5f61018082610157565b9050919050565b61019081610176565b82525050565b5f6020820190506101a95f830184610187565b92915050565b611210806101bc5f395ff3fe608060405260043610610090575f3560e01c8063715018a611610058578063715018a6146101865780638da5cb5b1461019c57806394be7197146101c6578063e97fac05146101ee578063f2fde38b1461021e57610090565b80630d159b3f1461009457806331a76535146100bc57806345967555146100e45780634d58045314610120578063670cec371461015e575b5f5ffd5b34801561009f575f5ffd5b506100ba60048036038101906100b59190610e08565b610246565b005b3480156100c7575f5ffd5b506100e260048036038101906100dd9190610e58565b61031e565b005b3480156100ef575f5ffd5b5061010a60048036038101906101059190610e83565b610434565b6040516101179190610ed0565b60405180910390f35b34801561012b575f5ffd5b5061014660048036038101906101419190610e58565b61047c565b60405161015593929190610f07565b60405180910390f35b348015610169575f5ffd5b50610184600480360381019061017f9190610e58565b6104ae565b005b348015610191575f5ffd5b5061019a6105c6565b005b3480156101a7575f5ffd5b506101b06105d9565b6040516101bd9190610ed0565b60405180910390f35b3480156101d1575f5ffd5b506101ec60048036038101906101e79190610e83565b610600565b005b61020860048036038101906102039190610f9d565b61074a565b6040516102159190610ed0565b60405180910390f35b348015610229575f5ffd5b50610244600480360381019061023f9190610e58565b610a64565b005b61024e610ae8565b604051806060016040528083815260200182151581526020014281525060025f8573ffffffffffffffffffffffffffffffffffffffff1673ffffffffffffffffffffffffffffffffffffffff1681526020019081526020015f205f820151815f01556020820151816001015f6101000a81548160ff021916908315150217905550604082015181600201559050507f04e5c77ae4e9e5b61ff3abeac1936c96fbd58c0bd1465c73362dccfeb31ee75a838383426040516103119493929190610ffa565b60405180910390a1505050565b610326610ae8565b5f60025f8373ffffffffffffffffffffffffffffffffffffffff1673ffffffffffffffffffffffffffffffffffffffff1681526020019081526020015f20600201541161039f576040517fe87feefd00000000000000000000000000000000000000000000000000000000815260040160405180910390fd5b5f60025f8373ffffffffffffffffffffffffffffffffffffffff1673ffffffffffffffffffffffffffffffffffffffff1681526020019081526020015f206001015f6101000a81548160ff0219169083151502179055507f434ee15f55ff3aeee926d0d2cdc10861189dfdc47305a9ea5d0504102c408515815f426040516104299392919061103d565b60405180910390a150565b6001602052815f5260405f20818154811061044d575f80fd5b905f5260205f20015f915091509054906101000a900473ffffffffffffffffffffffffffffffffffffffff1681565b6002602052805f5260405f205f91509050805f015490806001015f9054906101000a900460ff16908060020154905083565b6104b6610ae8565b5f60025f8373ffffffffffffffffffffffffffffffffffffffff1673ffffffffffffffffffffffffffffffffffffffff1681526020019081526020015f20600201541161052f576040517fe87feefd00000000000000000000000000000000000000000000000000000000815260040160405180910390fd5b600160025f8373ffffffffffffffffffffffffffffffffffffffff1673ffffffffffffffffffffffffffffffffffffffff1681526020019081526020015f206001015f6101000a81548160ff0219169083151502179055507f434ee15f55ff3aeee926d0d2cdc10861189dfdc47305a9ea5d0504102c408515816001426040516105bb9392919061103d565b60405180910390a150565b6105ce610ae8565b6105d75f610b6f565b565b5f5f5f9054906101000a900473ffffffffffffffffffffffffffffffffffffffff16905090565b610608610ae8565b5f60025f8473ffffffffffffffffffffffffffffffffffffffff1673ffffffffffffffffffffffffffffffffffffffff1681526020019081526020015f206002015411610681576040517fe87feefd00000000000000000000000000000000000000000000000000000000815260040160405180910390fd5b5f60025f8473ffffffffffffffffffffffffffffffffffffffff1673ffffffffffffffffffffffffffffffffffffffff1681526020019081526020015f205f015490508160025f8573ffffffffffffffffffffffffffffffffffffffff1673ffffffffffffffffffffffffffffffffffffffff1681526020019081526020015f205f01819055507fae754cde05a89e748dcec68ddb7845dfa44d041f114d95bf8d37338b6e0c9a5d8382844260405161073d9493929190611072565b60405180910390a1505050565b5f5f60025f8673ffffffffffffffffffffffffffffffffffffffff1673ffffffffffffffffffffffffffffffffffffffff1681526020019081526020015f206040518060600160405290815f8201548152602001600182015f9054906101000a900460ff16151515158152602001600282015481525050905080602001516107fe576040517f4e00e51300000000000000000000000000000000000000000000000000000000815260040160405180910390fd5b805f015134101561083b576040517fc1463a4000000000000000000000000000000000000000000000000000000000815260040160405180910390fd5b5f816040015111610878576040517fe87feefd00000000000000000000000000000000000000000000000000000000815260040160405180910390fd5b5f61088286610c30565b90508073ffffffffffffffffffffffffffffffffffffffff1663439fab9186866040518363ffffffff1660e01b81526004016108bf92919061110f565b6020604051808303815f875af11580156108db573d5f5f3e3d5ffd5b505050506040513d601f19601f820116820180604052508101906108ff9190611145565b610935576040517f19b991a800000000000000000000000000000000000000000000000000000000815260040160405180910390fd5b61093d6105d9565b73ffffffffffffffffffffffffffffffffffffffff166108fc3490811502906040515f60405180830381858888f1935050505015801561097f573d5f5f3e3d5ffd5b5060015f3373ffffffffffffffffffffffffffffffffffffffff1673ffffffffffffffffffffffffffffffffffffffff1681526020019081526020015f2081908060018154018082558091505060019003905f5260205f20015f9091909190916101000a81548173ffffffffffffffffffffffffffffffffffffffff021916908373ffffffffffffffffffffffffffffffffffffffff1602179055507f4335dea2303bafa4bcabf73562ea6cf86520c11cda707391eac6afaf50c46ab833823442604051610a509493929190611170565b60405180910390a180925050509392505050565b610a6c610ae8565b5f73ffffffffffffffffffffffffffffffffffffffff168173ffffffffffffffffffffffffffffffffffffffff1603610adc575f6040517f1e4fbdf7000000000000000000000000000000000000000000000000000000008152600401610ad39190610ed0565b60405180910390fd5b610ae581610b6f565b50565b610af0610c42565b73ffffffffffffffffffffffffffffffffffffffff16610b0e6105d9565b73ffffffffffffffffffffffffffffffffffffffff1614610b6d57610b31610c42565b6040517f118cdaa7000000000000000000000000000000000000000000000000000000008152600401610b649190610ed0565b60405180910390fd5b565b5f5f5f9054906101000a900473ffffffffffffffffffffffffffffffffffffffff169050815f5f6101000a81548173ffffffffffffffffffffffffffffffffffffffff021916908373ffffffffffffffffffffffffffffffffffffffff1602179055508173ffffffffffffffffffffffffffffffffffffffff168173ffffffffffffffffffffffffffffffffffffffff167f8be0079c531659141344cd1fd0a4f28419497f9722a3daafe3b4186f6b6457e060405160405180910390a35050565b5f610c3b825f610c49565b9050919050565b5f33905090565b5f81471015610c915747826040517fcf479181000000000000000000000000000000000000000000000000000000008152600401610c889291906111b3565b60405180910390fd5b763d602d80600a3d3981f3363d3d373d3d3d363d730000008360601b60e81c175f526e5af43d82803e903d91602b57fd5bf38360781b176020526037600983f090505f73ffffffffffffffffffffffffffffffffffffffff168173ffffffffffffffffffffffffffffffffffffffff1603610d38576040517fb06ebf3d00000000000000000000000000000000000000000000000000000000815260040160405180910390fd5b92915050565b5f5ffd5b5f5ffd5b5f73ffffffffffffffffffffffffffffffffffffffff82169050919050565b5f610d6f82610d46565b9050919050565b610d7f81610d65565b8114610d89575f5ffd5b50565b5f81359050610d9a81610d76565b92915050565b5f819050919050565b610db281610da0565b8114610dbc575f5ffd5b50565b5f81359050610dcd81610da9565b92915050565b5f8115159050919050565b610de781610dd3565b8114610df1575f5ffd5b50565b5f81359050610e0281610dde565b92915050565b5f5f5f60608486031215610e1f57610e1e610d3e565b5b5f610e2c86828701610d8c565b9350506020610e3d86828701610dbf565b9250506040610e4e86828701610df4565b9150509250925092565b5f60208284031215610e6d57610e6c610d3e565b5b5f610e7a84828501610d8c565b91505092915050565b5f5f60408385031215610e9957610e98610d3e565b5b5f610ea685828601610d8c565b9250506020610eb785828601610dbf565b9150509250929050565b610eca81610d65565b82525050565b5f602082019050610ee35f830184610ec1565b92915050565b610ef281610da0565b82525050565b610f0181610dd3565b82525050565b5f606082019050610f1a5f830186610ee9565b610f276020830185610ef8565b610f346040830184610ee9565b949350505050565b5f5ffd5b5f5ffd5b5f5ffd5b5f5f83601f840112610f5d57610f5c610f3c565b5b8235905067ffffffffffffffff811115610f7a57610f79610f40565b5b602083019150836001820283011115610f9657610f95610f44565b5b9250929050565b5f5f5f60408486031215610fb457610fb3610d3e565b5b5f610fc186828701610d8c565b935050602084013567ffffffffffffffff811115610fe257610fe1610d42565b5b610fee86828701610f48565b92509250509250925092565b5f60808201905061100d5f830187610ec1565b61101a6020830186610ee9565b6110276040830185610ef8565b6110346060830184610ee9565b95945050505050565b5f6060820190506110505f830186610ec1565b61105d6020830185610ef8565b61106a6040830184610ee9565b949350505050565b5f6080820190506110855f830187610ec1565b6110926020830186610ee9565b61109f6040830185610ee9565b6110ac6060830184610ee9565b95945050505050565b5f82825260208201905092915050565b828183375f83830152505050565b5f601f19601f8301169050919050565b5f6110ee83856110b5565b93506110fb8385846110c5565b611104836110d3565b840190509392505050565b5f6020820190508181035f8301526111288184866110e3565b90509392505050565b5f8151905061113f81610dde565b92915050565b5f6020828403121561115a57611159610d3e565b5b5f61116784828501611131565b91505092915050565b5f6080820190506111835f830187610ec1565b6111906020830186610ec1565b61119d6040830185610ee9565b6111aa6060830184610ee9565b95945050505050565b5f6040820190506111c65f830185610ee9565b6111d36020830184610ee9565b939250505056fea2646970667358221220b13cd6a210776b7cc8c54f6809d350b3aafa157e941b2995bc448c338cd7fe6e64736f6c634300081d0033","linkReferences":{}},"methodIdentifiers":{"activateContract(address)":"670cec37","addNewContract(address,uint256,bool)":"0d159b3f","contractsData(address)":"4d580453","deactivateContract(address)":"31a76535","deploy(address,bytes)":"e97fac05","deployedContracts(address,uint256)":"45967555","owner()":"8da5cb5b","renounceOwnership()":"715018a6","transferOwnership(address)":"f2fde38b","updateFee(address,uint256)":"94be7197"},"id":19}