{"abi":[{"type":"constructor","inputs":[],"stateMutability":"nonpayable"},{"type":"fallback","stateMutability":"nonpayable"},{"type":"receive","stateMutability":"payable"},{"type":"function","name":"duration","inputs":[],"outputs":[{"name":"","type":"uint256","internalType":"uint256"}],"stateMutability":"view"},{"type":"function","name":"getAllPayees","inputs":[],"outputs":[{"name":"","type":"tuple[]","internalType":"struct AutoVestingSplitter.PayeeInfo[]","components":[{"name":"account","type":"address","internalType":"address"},{"name":"share","type":"uint256","internalType":"uint256"},{"name":"vestingWallet","type":"address","internalType":"address"}]}],"stateMutability":"view"},{"type":"function","name":"getInitData","inputs":[{"name":"_accounts","type":"address[]","internalType":"address[]"},{"name":"_shares","type":"uint256[]","internalType":"uint256[]"},{"name":"_duration","type":"uint64","internalType":"uint64"},{"name":"_owner","type":"address","internalType":"address"}],"outputs":[{"name":"","type":"bytes","internalType":"bytes"}],"stateMutability":"pure"},{"type":"function","name":"getVestingWallet","inputs":[{"name":"user","type":"address","internalType":"address"}],"outputs":[{"name":"","type":"address","internalType":"address"}],"stateMutability":"view"},{"type":"function","name":"initialize","inputs":[{"name":"_initData","type":"bytes","internalType":"bytes"}],"outputs":[{"name":"","type":"bool","internalType":"bool"}],"stateMutability":"nonpayable"},{"type":"function","name":"owner","inputs":[],"outputs":[{"name":"","type":"address","internalType":"address"}],"stateMutability":"view"},{"type":"function","name":"payees","inputs":[{"name":"","type":"uint256","internalType":"uint256"}],"outputs":[{"name":"account","type":"address","internalType":"address"},{"name":"share","type":"uint256","internalType":"uint256"},{"name":"vestingWallet","type":"address","internalType":"address"}],"stateMutability":"view"},{"type":"function","name":"renounceOwnership","inputs":[],"outputs":[],"stateMutability":"nonpayable"},{"type":"function","name":"start","inputs":[],"outputs":[{"name":"","type":"uint256","internalType":"uint256"}],"stateMutability":"view"},{"type":"function","name":"totalShares","inputs":[],"outputs":[{"name":"","type":"uint256","internalType":"uint256"}],"stateMutability":"view"},{"type":"function","name":"transferOwnership","inputs":[{"name":"newOwner","type":"address","internalType":"address"}],"outputs":[],"stateMutability":"nonpayable"},{"type":"function","name":"vestingWalletCount","inputs":[],"outputs":[{"name":"","type":"uint256","internalType":"uint256"}],"stateMutability":"view"},{"type":"function","name":"vestingWalletOf","inputs":[{"name":"","type":"address","internalType":"address"}],"outputs":[{"name":"","type":"address","internalType":"address"}],"stateMutability":"view"},{"type":"event","name":"OwnershipTransferred","inputs":[{"name":"previousOwner","type":"address","indexed":true,"internalType":"address"},{"name":"newOwner","type":"address","indexed":true,"internalType":"address"}],"anonymous":false},{"type":"event","name":"PaymentReceived","inputs":[{"name":"from","type":"address","indexed":false,"internalType":"address"},{"name":"amount","type":"uint256","indexed":false,"internalType":"uint256"}],"anonymous":false},{"type":"event","name":"VestedETHForwarded","inputs":[{"name":"payee","type":"address","indexed":true,"internalType":"address"},{"name":"vestingWallet","type":"address","indexed":false,"internalType":"address"},{"name":"amount","type":"uint256","indexed":false,"internalType":"uint256"}],"anonymous":false},{"type":"error","name":"AlreadyInitialized","inputs":[]},{"type":"error","name":"InvalidInput","inputs":[]},{"type":"error","name":"OwnableInvalidOwner","inputs":[{"name":"owner","type":"address","internalType":"address"}]},{"type":"error","name":"OwnableUnauthorizedAccount","inputs":[{"name":"account","type":"address","internalType":"address"}]},{"type":"error","name":"ZeroAddress","inputs":[]},{"type":"error","name":"ZeroShare","inputs":[]}],"bytecode":{"object":"0x608060405234801561000f575f5ffd5b50335f73ffffffffffffffffffffffffffffffffffffffff168173ffffffffffffffffffffffffffffffffffffffff1603610081575f6040517f1e4fbdf70000000000000000000000000000000000000000000000000000000081526004016100789190610196565b60405180910390fd5b6100908161009660201b60201c565b506101af565b5f5f5f9054906101000a900473ffffffffffffffffffffffffffffffffffffffff169050815f5f6101000a81548173ffffffffffffffffffffffffffffffffffffffff021916908373ffffffffffffffffffffffffffffffffffffffff1602179055508173ffffffffffffffffffffffffffffffffffffffff168173ffffffffffffffffffffffffffffffffffffffff167f8be0079c531659141344cd1fd0a4f28419497f9722a3daafe3b4186f6b6457e060405160405180910390a35050565b5f73ffffffffffffffffffffffffffffffffffffffff82169050919050565b5f61018082610157565b9050919050565b61019081610176565b82525050565b5f6020820190506101a95f830184610187565b92915050565b612d5a806101bc5f395ff3fe6080604052600436106100c5575f3560e01c8063715018a61161007e578063c37901fd11610058578063c37901fd146102f3578063ce106ed71461032f578063f2fde38b1461036b578063f938d13b146103935761010e565b8063715018a6146102895780638da5cb5b1461029f578063be9a6555146102c95761010e565b8063034080cf146101555780630fb5a6b41461017f5780633a98ef39146101a9578063439fab91146101d3578063586e600c1461020f57806363037b0c1461024b5761010e565b3661010e577f6ef95f06320e7a25a04a175ca677b7052bdd97131872c2192525a629f51be77033346040516100fb929190610e9d565b60405180910390a161010c346103bd565b005b348015610119575f5ffd5b506040517f08c379a000000000000000000000000000000000000000000000000000000000815260040161014c90610f1e565b60405180910390fd5b348015610160575f5ffd5b5061016961058b565b6040516101769190610f3c565b60405180910390f35b34801561018a575f5ffd5b50610193610597565b6040516101a09190610f3c565b60405180910390f35b3480156101b4575f5ffd5b506101bd61059d565b6040516101ca9190610f3c565b60405180910390f35b3480156101de575f5ffd5b506101f960048036038101906101f491906110a2565b6105a3565b6040516102069190611103565b60405180910390f35b34801561021a575f5ffd5b5061023560048036038101906102309190611146565b6109dd565b6040516102429190611171565b60405180910390f35b348015610256575f5ffd5b50610271600480360381019061026c91906111b4565b610a0d565b604051610280939291906111df565b60405180910390f35b348015610294575f5ffd5b5061029d610a80565b005b3480156102aa575f5ffd5b506102b3610a93565b6040516102c09190611171565b60405180910390f35b3480156102d4575f5ffd5b506102dd610aba565b6040516102ea9190610f3c565b60405180910390f35b3480156102fe575f5ffd5b50610319600480360381019061031491906113d5565b610ac0565b60405161032691906114d1565b60405180910390f35b34801561033a575f5ffd5b5061035560048036038101906103509190611146565b610af2565b6040516103629190611171565b60405180910390f35b348015610376575f5ffd5b50610391600480360381019061038c9190611146565b610b57565b005b34801561039e575f5ffd5b506103a7610bdb565b6040516103b491906115f7565b60405180910390f35b5f5f90505b600480549050811015610587575f600482815481106103e4576103e3611617565b5b905f5260205f2090600302016040518060600160405290815f82015f9054906101000a900473ffffffffffffffffffffffffffffffffffffffff1673ffffffffffffffffffffffffffffffffffffffff1673ffffffffffffffffffffffffffffffffffffffff16815260200160018201548152602001600282015f9054906101000a900473ffffffffffffffffffffffffffffffffffffffff1673ffffffffffffffffffffffffffffffffffffffff1673ffffffffffffffffffffffffffffffffffffffff168152505090505f6001548260200151856104c49190611671565b6104ce91906116df565b90505f81111561057857816040015173ffffffffffffffffffffffffffffffffffffffff166108fc8290811502906040515f60405180830381858888f1935050505015801561051f573d5f5f3e3d5ffd5b50815f015173ffffffffffffffffffffffffffffffffffffffff167fb116d5b0e2d560347ef5d71a9126615bc59b62a1e5a0ceb12a464b11fb94ff0183604001518360405161056f929190610e9d565b60405180910390a25b505080806001019150506103c2565b5050565b5f600480549050905090565b60035481565b60015481565b5f60065f9054906101000a900460ff16156105ea576040517f0dc149f000000000000000000000000000000000000000000000000000000000815260040160405180910390fd5b5f5f5f5f8580602001905181019061060291906118b0565b93509350935093508251845114158061061b57505f8451145b15610652576040517fb4fa3fb300000000000000000000000000000000000000000000000000000000815260040160405180910390fd5b426002819055508167ffffffffffffffff166003819055505f5f90505b84518110156109ac575f73ffffffffffffffffffffffffffffffffffffffff168582815181106106a2576106a1611617565b5b602002602001015173ffffffffffffffffffffffffffffffffffffffff16036106f7576040517fd92e233d00000000000000000000000000000000000000000000000000000000815260040160405180910390fd5b5f84828151811061070b5761070a611617565b5b60200260200101510361074a576040517ffc6f967700000000000000000000000000000000000000000000000000000000815260040160405180910390fd5b5f85828151811061075e5761075d611617565b5b60200260200101516002548560405161077690610e39565b6107829392919061195b565b604051809103905ff08015801561079b573d5f5f3e3d5ffd5b5090508060055f8885815181106107b5576107b4611617565b5b602002602001015173ffffffffffffffffffffffffffffffffffffffff1673ffffffffffffffffffffffffffffffffffffffff1681526020019081526020015f205f6101000a81548173ffffffffffffffffffffffffffffffffffffffff021916908373ffffffffffffffffffffffffffffffffffffffff1602179055506004604051806060016040528088858151811061085357610852611617565b5b602002602001015173ffffffffffffffffffffffffffffffffffffffff16815260200187858151811061088957610888611617565b5b602002602001015181526020018373ffffffffffffffffffffffffffffffffffffffff16815250908060018154018082558091505060019003905f5260205f2090600302015f909190919091505f820151815f015f6101000a81548173ffffffffffffffffffffffffffffffffffffffff021916908373ffffffffffffffffffffffffffffffffffffffff160217905550602082015181600101556040820151816002015f6101000a81548173ffffffffffffffffffffffffffffffffffffffff021916908373ffffffffffffffffffffffffffffffffffffffff160217905550505084828151811061097f5761097e611617565b5b602002602001015160015f8282546109979190611990565b9250508190555050808060010191505061066f565b506109b681610cea565b600160065f6101000a81548160ff0219169083151502179055506001945050505050919050565b6005602052805f5260405f205f915054906101000a900473ffffffffffffffffffffffffffffffffffffffff1681565b60048181548110610a1c575f80fd5b905f5260205f2090600302015f91509050805f015f9054906101000a900473ffffffffffffffffffffffffffffffffffffffff1690806001015490806002015f9054906101000a900473ffffffffffffffffffffffffffffffffffffffff16905083565b610a88610dab565b610a915f610cea565b565b5f5f5f9054906101000a900473ffffffffffffffffffffffffffffffffffffffff16905090565b60025481565b606084848484604051602001610ad99493929190611b13565b6040516020818303038152906040529050949350505050565b5f60055f8373ffffffffffffffffffffffffffffffffffffffff1673ffffffffffffffffffffffffffffffffffffffff1681526020019081526020015f205f9054906101000a900473ffffffffffffffffffffffffffffffffffffffff169050919050565b610b5f610dab565b5f73ffffffffffffffffffffffffffffffffffffffff168173ffffffffffffffffffffffffffffffffffffffff1603610bcf575f6040517f1e4fbdf7000000000000000000000000000000000000000000000000000000008152600401610bc69190611171565b60405180910390fd5b610bd881610cea565b50565b60606004805480602002602001604051908101604052809291908181526020015f905b82821015610ce1578382905f5260205f2090600302016040518060600160405290815f82015f9054906101000a900473ffffffffffffffffffffffffffffffffffffffff1673ffffffffffffffffffffffffffffffffffffffff1673ffffffffffffffffffffffffffffffffffffffff16815260200160018201548152602001600282015f9054906101000a900473ffffffffffffffffffffffffffffffffffffffff1673ffffffffffffffffffffffffffffffffffffffff1673ffffffffffffffffffffffffffffffffffffffff168152505081526020019060010190610bfe565b50505050905090565b5f5f5f9054906101000a900473ffffffffffffffffffffffffffffffffffffffff169050815f5f6101000a81548173ffffffffffffffffffffffffffffffffffffffff021916908373ffffffffffffffffffffffffffffffffffffffff1602179055508173ffffffffffffffffffffffffffffffffffffffff168173ffffffffffffffffffffffffffffffffffffffff167f8be0079c531659141344cd1fd0a4f28419497f9722a3daafe3b4186f6b6457e060405160405180910390a35050565b610db3610e32565b73ffffffffffffffffffffffffffffffffffffffff16610dd1610a93565b73ffffffffffffffffffffffffffffffffffffffff1614610e3057610df4610e32565b6040517f118cdaa7000000000000000000000000000000000000000000000000000000008152600401610e279190611171565b60405180910390fd5b565b5f33905090565b6111c080611b6583390190565b5f73ffffffffffffffffffffffffffffffffffffffff82169050919050565b5f610e6f82610e46565b9050919050565b610e7f81610e65565b82525050565b5f819050919050565b610e9781610e85565b82525050565b5f604082019050610eb05f830185610e76565b610ebd6020830184610e8e565b9392505050565b5f82825260208201905092915050565b7f4552433230207472616e7366657273206e6f7420737570706f727465640000005f82015250565b5f610f08601d83610ec4565b9150610f1382610ed4565b602082019050919050565b5f6020820190508181035f830152610f3581610efc565b9050919050565b5f602082019050610f4f5f830184610e8e565b92915050565b5f604051905090565b5f5ffd5b5f5ffd5b5f5ffd5b5f5ffd5b5f601f19601f8301169050919050565b7f4e487b71000000000000000000000000000000000000000000000000000000005f52604160045260245ffd5b610fb482610f6e565b810181811067ffffffffffffffff82111715610fd357610fd2610f7e565b5b80604052505050565b5f610fe5610f55565b9050610ff18282610fab565b919050565b5f67ffffffffffffffff8211156110105761100f610f7e565b5b61101982610f6e565b9050602081019050919050565b828183375f83830152505050565b5f61104661104184610ff6565b610fdc565b90508281526020810184848401111561106257611061610f6a565b5b61106d848285611026565b509392505050565b5f82601f83011261108957611088610f66565b5b8135611099848260208601611034565b91505092915050565b5f602082840312156110b7576110b6610f5e565b5b5f82013567ffffffffffffffff8111156110d4576110d3610f62565b5b6110e084828501611075565b91505092915050565b5f8115159050919050565b6110fd816110e9565b82525050565b5f6020820190506111165f8301846110f4565b92915050565b61112581610e65565b811461112f575f5ffd5b50565b5f813590506111408161111c565b92915050565b5f6020828403121561115b5761115a610f5e565b5b5f61116884828501611132565b91505092915050565b5f6020820190506111845f830184610e76565b92915050565b61119381610e85565b811461119d575f5ffd5b50565b5f813590506111ae8161118a565b92915050565b5f602082840312156111c9576111c8610f5e565b5b5f6111d6848285016111a0565b91505092915050565b5f6060820190506111f25f830186610e76565b6111ff6020830185610e8e565b61120c6040830184610e76565b949350505050565b5f67ffffffffffffffff82111561122e5761122d610f7e565b5b602082029050602081019050919050565b5f5ffd5b5f61125561125084611214565b610fdc565b905080838252602082019050602084028301858111156112785761127761123f565b5b835b818110156112a1578061128d8882611132565b84526020840193505060208101905061127a565b5050509392505050565b5f82601f8301126112bf576112be610f66565b5b81356112cf848260208601611243565b91505092915050565b5f67ffffffffffffffff8211156112f2576112f1610f7e565b5b602082029050602081019050919050565b5f611315611310846112d8565b610fdc565b905080838252602082019050602084028301858111156113385761133761123f565b5b835b81811015611361578061134d88826111a0565b84526020840193505060208101905061133a565b5050509392505050565b5f82601f83011261137f5761137e610f66565b5b813561138f848260208601611303565b91505092915050565b5f67ffffffffffffffff82169050919050565b6113b481611398565b81146113be575f5ffd5b50565b5f813590506113cf816113ab565b92915050565b5f5f5f5f608085870312156113ed576113ec610f5e565b5b5f85013567ffffffffffffffff81111561140a57611409610f62565b5b611416878288016112ab565b945050602085013567ffffffffffffffff81111561143757611436610f62565b5b6114438782880161136b565b9350506040611454878288016113c1565b925050606061146587828801611132565b91505092959194509250565b5f81519050919050565b5f82825260208201905092915050565b8281835e5f83830152505050565b5f6114a382611471565b6114ad818561147b565b93506114bd81856020860161148b565b6114c681610f6e565b840191505092915050565b5f6020820190508181035f8301526114e98184611499565b905092915050565b5f81519050919050565b5f82825260208201905092915050565b5f819050602082019050919050565b61152381610e65565b82525050565b61153281610e85565b82525050565b606082015f82015161154c5f85018261151a565b50602082015161155f6020850182611529565b506040820151611572604085018261151a565b50505050565b5f6115838383611538565b60608301905092915050565b5f602082019050919050565b5f6115a5826114f1565b6115af81856114fb565b93506115ba8361150b565b805f5b838110156115ea5781516115d18882611578565b97506115dc8361158f565b9250506001810190506115bd565b5085935050505092915050565b5f6020820190508181035f83015261160f818461159b565b905092915050565b7f4e487b71000000000000000000000000000000000000000000000000000000005f52603260045260245ffd5b7f4e487b71000000000000000000000000000000000000000000000000000000005f52601160045260245ffd5b5f61167b82610e85565b915061168683610e85565b925082820261169481610e85565b915082820484148315176116ab576116aa611644565b5b5092915050565b7f4e487b71000000000000000000000000000000000000000000000000000000005f52601260045260245ffd5b5f6116e982610e85565b91506116f483610e85565b925082611704576117036116b2565b5b828204905092915050565b5f8151905061171d8161111c565b92915050565b5f61173561173084611214565b610fdc565b905080838252602082019050602084028301858111156117585761175761123f565b5b835b81811015611781578061176d888261170f565b84526020840193505060208101905061175a565b5050509392505050565b5f82601f83011261179f5761179e610f66565b5b81516117af848260208601611723565b91505092915050565b5f815190506117c68161118a565b92915050565b5f6117de6117d9846112d8565b610fdc565b905080838252602082019050602084028301858111156118015761180061123f565b5b835b8181101561182a578061181688826117b8565b845260208401935050602081019050611803565b5050509392505050565b5f82601f83011261184857611847610f66565b5b81516118588482602086016117cc565b91505092915050565b5f8151905061186f816113ab565b92915050565b5f61187f82610e46565b9050919050565b61188f81611875565b8114611899575f5ffd5b50565b5f815190506118aa81611886565b92915050565b5f5f5f5f608085870312156118c8576118c7610f5e565b5b5f85015167ffffffffffffffff8111156118e5576118e4610f62565b5b6118f18782880161178b565b945050602085015167ffffffffffffffff81111561191257611911610f62565b5b61191e87828801611834565b935050604061192f87828801611861565b92505060606119408782880161189c565b91505092959194509250565b61195581611398565b82525050565b5f60608201905061196e5f830186610e76565b61197b602083018561194c565b611988604083018461194c565b949350505050565b5f61199a82610e85565b91506119a583610e85565b92508282019050808211156119bd576119bc611644565b5b92915050565b5f81519050919050565b5f82825260208201905092915050565b5f819050602082019050919050565b5f6119f7838361151a565b60208301905092915050565b5f602082019050919050565b5f611a19826119c3565b611a2381856119cd565b9350611a2e836119dd565b805f5b83811015611a5e578151611a4588826119ec565b9750611a5083611a03565b925050600181019050611a31565b5085935050505092915050565b5f81519050919050565b5f82825260208201905092915050565b5f819050602082019050919050565b5f611a9f8383611529565b60208301905092915050565b5f602082019050919050565b5f611ac182611a6b565b611acb8185611a75565b9350611ad683611a85565b805f5b83811015611b06578151611aed8882611a94565b9750611af883611aab565b925050600181019050611ad9565b5085935050505092915050565b5f6080820190508181035f830152611b2b8187611a0f565b90508181036020830152611b3f8186611ab7565b9050611b4e604083018561194c565b611b5b6060830184610e76565b9594505050505056fe60c06040526040516111c03803806111c083398181016040528101906100259190610242565b825f73ffffffffffffffffffffffffffffffffffffffff168173ffffffffffffffffffffffffffffffffffffffff1603610096575f6040517f1e4fbdf700000000000000000000000000000000000000000000000000000000815260040161008d91906102a1565b60405180910390fd5b6100a5816100e660201b60201c565b508167ffffffffffffffff1660808167ffffffffffffffff16815250508067ffffffffffffffff1660a08167ffffffffffffffff16815250505050506102ba565b5f5f5f9054906101000a900473ffffffffffffffffffffffffffffffffffffffff169050815f5f6101000a81548173ffffffffffffffffffffffffffffffffffffffff021916908373ffffffffffffffffffffffffffffffffffffffff1602179055508173ffffffffffffffffffffffffffffffffffffffff168173ffffffffffffffffffffffffffffffffffffffff167f8be0079c531659141344cd1fd0a4f28419497f9722a3daafe3b4186f6b6457e060405160405180910390a35050565b5f5ffd5b5f73ffffffffffffffffffffffffffffffffffffffff82169050919050565b5f6101d4826101ab565b9050919050565b6101e4816101ca565b81146101ee575f5ffd5b50565b5f815190506101ff816101db565b92915050565b5f67ffffffffffffffff82169050919050565b61022181610205565b811461022b575f5ffd5b50565b5f8151905061023c81610218565b92915050565b5f5f5f60608486031215610259576102586101a7565b5b5f610266868287016101f1565b93505060206102778682870161022e565b92505060406102888682870161022e565b9150509250925092565b61029b816101ca565b82525050565b5f6020820190506102b45f830184610292565b92915050565b60805160a051610ee56102db5f395f61037a01525f6106270152610ee55ff3fe6080604052600436106100e0575f3560e01c8063961325211161007e578063be9a655511610058578063be9a6555146102ad578063efbe1c1c146102d7578063f2fde38b14610301578063fbccedae14610329576100e7565b8063961325211461020b5780639852595c14610235578063a3f8eace14610271576100e7565b8063715018a6116100ba578063715018a614610179578063810ec23b1461018f57806386d1a69f146101cb5780638da5cb5b146101e1576100e7565b80630a17b06b146100eb5780630fb5a6b4146101275780631916558714610151576100e7565b366100e757005b5f5ffd5b3480156100f6575f5ffd5b50610111600480360381019061010c9190610b53565b610353565b60405161011e9190610b96565b60405180910390f35b348015610132575f5ffd5b5061013b610377565b6040516101489190610b96565b60405180910390f35b34801561015c575f5ffd5b5061017760048036038101906101729190610c09565b6103a8565b005b348015610184575f5ffd5b5061018d61046b565b005b34801561019a575f5ffd5b506101b560048036038101906101b09190610c34565b61047e565b6040516101c29190610b96565b60405180910390f35b3480156101d6575f5ffd5b506101df61051b565b005b3480156101ec575f5ffd5b506101f5610589565b6040516102029190610c81565b60405180910390f35b348015610216575f5ffd5b5061021f6105b0565b60405161022c9190610b96565b60405180910390f35b348015610240575f5ffd5b5061025b60048036038101906102569190610c09565b6105b9565b6040516102689190610b96565b60405180910390f35b34801561027c575f5ffd5b5061029760048036038101906102929190610c09565b6105ff565b6040516102a49190610b96565b60405180910390f35b3480156102b8575f5ffd5b506102c1610624565b6040516102ce9190610b96565b60405180910390f35b3480156102e2575f5ffd5b506102eb610655565b6040516102f89190610b96565b60405180910390f35b34801561030c575f5ffd5b5061032760048036038101906103229190610c09565b610675565b005b348015610334575f5ffd5b5061033d6106f9565b60405161034a9190610b96565b60405180910390f35b5f61037061035f6105b0565b4761036a9190610cc7565b8361071a565b9050919050565b5f7f000000000000000000000000000000000000000000000000000000000000000067ffffffffffffffff16905090565b5f6103b2826105ff565b90508060025f8473ffffffffffffffffffffffffffffffffffffffff1673ffffffffffffffffffffffffffffffffffffffff1681526020019081526020015f205f8282546104009190610cc7565b925050819055508173ffffffffffffffffffffffffffffffffffffffff167fc0e523490dd523c33b1878c9eb14ff46991e3f5b2cd33710918618f2a39cba1b8260405161044d9190610b96565b60405180910390a261046782610461610589565b8361079f565b5050565b61047361081e565b61047c5f6108a5565b565b5f61051361048b846105b9565b8473ffffffffffffffffffffffffffffffffffffffff166370a08231306040518263ffffffff1660e01b81526004016104c49190610c81565b602060405180830381865afa1580156104df573d5f5f3e3d5ffd5b505050506040513d601f19601f820116820180604052508101906105039190610d24565b61050d9190610cc7565b8361071a565b905092915050565b5f6105246106f9565b90508060015f8282546105379190610cc7565b925050819055507fda9d4e5f101b8b9b1c5b76d0c5a9f7923571acfc02376aa076b75a8c080c956b8160405161056d9190610b96565b60405180910390a1610586610580610589565b82610966565b50565b5f5f5f9054906101000a900473ffffffffffffffffffffffffffffffffffffffff16905090565b5f600154905090565b5f60025f8373ffffffffffffffffffffffffffffffffffffffff1673ffffffffffffffffffffffffffffffffffffffff1681526020019081526020015f20549050919050565b5f610609826105b9565b610613834261047e565b61061d9190610d4f565b9050919050565b5f7f000000000000000000000000000000000000000000000000000000000000000067ffffffffffffffff16905090565b5f61065e610377565b610666610624565b6106709190610cc7565b905090565b61067d61081e565b5f73ffffffffffffffffffffffffffffffffffffffff168173ffffffffffffffffffffffffffffffffffffffff16036106ed575f6040517f1e4fbdf70000000000000000000000000000000000000000000000000000000081526004016106e49190610c81565b60405180910390fd5b6106f6816108a5565b50565b5f6107026105b0565b61070b42610353565b6107159190610d4f565b905090565b5f610723610624565b8267ffffffffffffffff16101561073c575f9050610799565b610744610655565b8267ffffffffffffffff161061075c57829050610799565b610764610377565b61076c610624565b8367ffffffffffffffff166107819190610d4f565b8461078c9190610d82565b6107969190610df0565b90505b92915050565b610819838473ffffffffffffffffffffffffffffffffffffffff1663a9059cbb85856040516024016107d2929190610e20565b604051602081830303815290604052915060e01b6020820180517bffffffffffffffffffffffffffffffffffffffffffffffffffffffff8381831617835250505050610a2c565b505050565b610826610ac7565b73ffffffffffffffffffffffffffffffffffffffff16610844610589565b73ffffffffffffffffffffffffffffffffffffffff16146108a357610867610ac7565b6040517f118cdaa700000000000000000000000000000000000000000000000000000000815260040161089a9190610c81565b60405180910390fd5b565b5f5f5f9054906101000a900473ffffffffffffffffffffffffffffffffffffffff169050815f5f6101000a81548173ffffffffffffffffffffffffffffffffffffffff021916908373ffffffffffffffffffffffffffffffffffffffff1602179055508173ffffffffffffffffffffffffffffffffffffffff168173ffffffffffffffffffffffffffffffffffffffff167f8be0079c531659141344cd1fd0a4f28419497f9722a3daafe3b4186f6b6457e060405160405180910390a35050565b804710156109ad5747816040517fcf4791810000000000000000000000000000000000000000000000000000000081526004016109a4929190610e47565b60405180910390fd5b5f5f8373ffffffffffffffffffffffffffffffffffffffff16836040516109d390610e9b565b5f6040518083038185875af1925050503d805f8114610a0d576040519150601f19603f3d011682016040523d82523d5f602084013e610a12565b606091505b509150915081610a2657610a2581610ace565b5b50505050565b5f5f60205f8451602086015f885af180610a4b576040513d5f823e3d81fd5b3d92505f519150505f8214610a64576001811415610a7f565b5f8473ffffffffffffffffffffffffffffffffffffffff163b145b15610ac157836040517f5274afe7000000000000000000000000000000000000000000000000000000008152600401610ab89190610c81565b60405180910390fd5b50505050565b5f33905090565b5f81511115610ae05780518082602001fd5b6040517fd6bda27500000000000000000000000000000000000000000000000000000000815260040160405180910390fd5b5f5ffd5b5f67ffffffffffffffff82169050919050565b610b3281610b16565b8114610b3c575f5ffd5b50565b5f81359050610b4d81610b29565b92915050565b5f60208284031215610b6857610b67610b12565b5b5f610b7584828501610b3f565b91505092915050565b5f819050919050565b610b9081610b7e565b82525050565b5f602082019050610ba95f830184610b87565b92915050565b5f73ffffffffffffffffffffffffffffffffffffffff82169050919050565b5f610bd882610baf565b9050919050565b610be881610bce565b8114610bf2575f5ffd5b50565b5f81359050610c0381610bdf565b92915050565b5f60208284031215610c1e57610c1d610b12565b5b5f610c2b84828501610bf5565b91505092915050565b5f5f60408385031215610c4a57610c49610b12565b5b5f610c5785828601610bf5565b9250506020610c6885828601610b3f565b9150509250929050565b610c7b81610bce565b82525050565b5f602082019050610c945f830184610c72565b92915050565b7f4e487b71000000000000000000000000000000000000000000000000000000005f52601160045260245ffd5b5f610cd182610b7e565b9150610cdc83610b7e565b9250828201905080821115610cf457610cf3610c9a565b5b92915050565b610d0381610b7e565b8114610d0d575f5ffd5b50565b5f81519050610d1e81610cfa565b92915050565b5f60208284031215610d3957610d38610b12565b5b5f610d4684828501610d10565b91505092915050565b5f610d5982610b7e565b9150610d6483610b7e565b9250828203905081811115610d7c57610d7b610c9a565b5b92915050565b5f610d8c82610b7e565b9150610d9783610b7e565b9250828202610da581610b7e565b91508282048414831517610dbc57610dbb610c9a565b5b5092915050565b7f4e487b71000000000000000000000000000000000000000000000000000000005f52601260045260245ffd5b5f610dfa82610b7e565b9150610e0583610b7e565b925082610e1557610e14610dc3565b5b828204905092915050565b5f604082019050610e335f830185610c72565b610e406020830184610b87565b9392505050565b5f604082019050610e5a5f830185610b87565b610e676020830184610b87565b9392505050565b5f81905092915050565b50565b5f610e865f83610e6e565b9150610e9182610e78565b5f82019050919050565b5f610ea582610e7b565b915081905091905056fea26469706673582212200fcdd2cd203875e285e21084933660f317d07ba42cb8ab6b6daf5ba6fa1ec38464736f6c634300081d0033a264697066735822122062ae01b48c1796aed6a56f0da2720d55f5dfdd52bb154e59c57cde6ffa45da1264736f6c634300081d0033","linkReferences":{}},"methodIdentifiers":{"duration()":"0fb5a6b4","getAllPayees()":"f938d13b","getInitData(address[],uint256[],uint64,address)":"c37901fd","getVestingWallet(address)":"ce106ed7","initialize(bytes)":"439fab91","owner()":"8da5cb5b","payees(uint256)":"63037b0c","renounceOwnership()":"715018a6","start()":"be9a6555","totalShares()":"3a98ef39","transferOwnership(address)":"f2fde38b","vestingWalletCount()":"034080cf","vestingWalletOf(address)":"586e600c"},"id":18}