{"abi":[{"type":"constructor","inputs":[],"stateMutability":"payable"},{"type":"function","name":"MAX_AIRDROP_BATCH_SIZE","inputs":[],"outputs":[{"name":"","type":"uint256","internalType":"uint256"}],"stateMutability":"view"},{"type":"function","name":"airdrop","inputs":[{"name":"receivers","type":"address[]","internalType":"address[]"},{"name":"tokenIds","type":"uint256[]","internalType":"uint256[]"}],"outputs":[],"stateMutability":"nonpayable"},{"type":"function","name":"getInitData","inputs":[{"name":"_token","type":"address","internalType":"address"},{"name":"_treasury","type":"address","internalType":"address"},{"name":"_owner","type":"address","internalType":"address"}],"outputs":[{"name":"","type":"bytes","internalType":"bytes"}],"stateMutability":"pure"},{"type":"function","name":"initialize","inputs":[{"name":"_initData","type":"bytes","internalType":"bytes"}],"outputs":[{"name":"","type":"bool","internalType":"bool"}],"stateMutability":"nonpayable"},{"type":"function","name":"owner","inputs":[],"outputs":[{"name":"","type":"address","internalType":"address"}],"stateMutability":"view"},{"type":"function","name":"renounceOwnership","inputs":[],"outputs":[],"stateMutability":"nonpayable"},{"type":"function","name":"token","inputs":[],"outputs":[{"name":"","type":"address","internalType":"contract IERC721"}],"stateMutability":"view"},{"type":"function","name":"transferOwnership","inputs":[{"name":"newOwner","type":"address","internalType":"address"}],"outputs":[],"stateMutability":"nonpayable"},{"type":"function","name":"treasury","inputs":[],"outputs":[{"name":"","type":"address","internalType":"address"}],"stateMutability":"view"},{"type":"event","name":"OwnershipTransferred","inputs":[{"name":"previousOwner","type":"address","indexed":true,"internalType":"address"},{"name":"newOwner","type":"address","indexed":true,"internalType":"address"}],"anonymous":false},{"type":"error","name":"AlreadyInitialized","inputs":[]},{"type":"error","name":"ArraysLengthMismatch","inputs":[]},{"type":"error","name":"BatchSizeExceeded","inputs":[]},{"type":"error","name":"NeedToApproveTokens","inputs":[]},{"type":"error","name":"OwnableInvalidOwner","inputs":[{"name":"owner","type":"address","internalType":"address"}]},{"type":"error","name":"OwnableUnauthorizedAccount","inputs":[{"name":"account","type":"address","internalType":"address"}]}],"bytecode":{"object":"0x6080604052335f73ffffffffffffffffffffffffffffffffffffffff168173ffffffffffffffffffffffffffffffffffffffff1603610075575f6040517f1e4fbdf700000000000000000000000000000000000000000000000000000000815260040161006c919061018a565b60405180910390fd5b6100848161008a60201b60201c565b506101a3565b5f5f5f9054906101000a900473ffffffffffffffffffffffffffffffffffffffff169050815f5f6101000a81548173ffffffffffffffffffffffffffffffffffffffff021916908373ffffffffffffffffffffffffffffffffffffffff1602179055508173ffffffffffffffffffffffffffffffffffffffff168173ffffffffffffffffffffffffffffffffffffffff167f8be0079c531659141344cd1fd0a4f28419497f9722a3daafe3b4186f6b6457e060405160405180910390a35050565b5f73ffffffffffffffffffffffffffffffffffffffff82169050919050565b5f6101748261014b565b9050919050565b6101848161016a565b82525050565b5f60208201905061019d5f83018461017b565b92915050565b610ec8806101b05f395ff3fe608060405234801561000f575f5ffd5b5060043610610091575f3560e01c80638da5cb5b116100645780638da5cb5b14610109578063b277332d14610127578063c475dda914610145578063f2fde38b14610175578063fc0c546a1461019157610091565b8063439fab911461009557806361d027b3146100c557806367243482146100e3578063715018a6146100ff575b5f5ffd5b6100af60048036038101906100aa9190610928565b6101af565b6040516100bc9190610989565b60405180910390f35b6100cd6102c4565b6040516100da91906109e1565b60405180910390f35b6100fd60048036038101906100f89190610aac565b6102e9565b005b610107610574565b005b610111610587565b60405161011e91906109e1565b60405180910390f35b61012f6105ae565b60405161013c9190610b42565b60405180910390f35b61015f600480360381019061015a9190610b85565b6105b4565b60405161016c9190610c35565b60405180910390f35b61018f600480360381019061018a9190610c55565b6105e3565b005b610199610667565b6040516101a69190610cdb565b60405180910390f35b5f600260149054906101000a900460ff16156101f7576040517f0dc149f000000000000000000000000000000000000000000000000000000000815260040160405180910390fd5b5f5f5f8480602001905181019061020e9190610d2f565b9250925092508260015f6101000a81548173ffffffffffffffffffffffffffffffffffffffff021916908373ffffffffffffffffffffffffffffffffffffffff1602179055508160025f6101000a81548173ffffffffffffffffffffffffffffffffffffffff021916908373ffffffffffffffffffffffffffffffffffffffff16021790555061029d816105e3565b6001600260146101000a81548160ff02191690831515021790555060019350505050919050565b60025f9054906101000a900473ffffffffffffffffffffffffffffffffffffffff1681565b6102f161068c565b61012c828290501115610330576040517fabcf3d2300000000000000000000000000000000000000000000000000000000815260040160405180910390fd5b81819050848490501461036f576040517ffc23596000000000000000000000000000000000000000000000000000000000815260040160405180910390fd5b60015f9054906101000a900473ffffffffffffffffffffffffffffffffffffffff1673ffffffffffffffffffffffffffffffffffffffff1663e985e9c560025f9054906101000a900473ffffffffffffffffffffffffffffffffffffffff16306040518363ffffffff1660e01b81526004016103ec929190610d7f565b602060405180830381865afa158015610407573d5f5f3e3d5ffd5b505050506040513d601f19601f8201168201806040525081019061042b9190610dd0565b610461576040517f9bacfd9a00000000000000000000000000000000000000000000000000000000815260040160405180910390fd5b5f60025f9054906101000a900473ffffffffffffffffffffffffffffffffffffffff1690505f5f90505b8383905081101561056c5760015f9054906101000a900473ffffffffffffffffffffffffffffffffffffffff1673ffffffffffffffffffffffffffffffffffffffff166342842e0e838888858181106104e7576104e6610dfb565b5b90506020020160208101906104fc9190610c55565b87878681811061050f5761050e610dfb565b5b905060200201356040518463ffffffff1660e01b815260040161053493929190610e28565b5f604051808303815f87803b15801561054b575f5ffd5b505af115801561055d573d5f5f3e3d5ffd5b5050505080600101905061048b565b505050505050565b61057c61068c565b6105855f610713565b565b5f5f5f9054906101000a900473ffffffffffffffffffffffffffffffffffffffff16905090565b61012c81565b60608383836040516020016105cb93929190610e5d565b60405160208183030381529060405290509392505050565b6105eb61068c565b5f73ffffffffffffffffffffffffffffffffffffffff168173ffffffffffffffffffffffffffffffffffffffff160361065b575f6040517f1e4fbdf700000000000000000000000000000000000000000000000000000000815260040161065291906109e1565b60405180910390fd5b61066481610713565b50565b60015f9054906101000a900473ffffffffffffffffffffffffffffffffffffffff1681565b6106946107d4565b73ffffffffffffffffffffffffffffffffffffffff166106b2610587565b73ffffffffffffffffffffffffffffffffffffffff1614610711576106d56107d4565b6040517f118cdaa700000000000000000000000000000000000000000000000000000000815260040161070891906109e1565b60405180910390fd5b565b5f5f5f9054906101000a900473ffffffffffffffffffffffffffffffffffffffff169050815f5f6101000a81548173ffffffffffffffffffffffffffffffffffffffff021916908373ffffffffffffffffffffffffffffffffffffffff1602179055508173ffffffffffffffffffffffffffffffffffffffff168173ffffffffffffffffffffffffffffffffffffffff167f8be0079c531659141344cd1fd0a4f28419497f9722a3daafe3b4186f6b6457e060405160405180910390a35050565b5f33905090565b5f604051905090565b5f5ffd5b5f5ffd5b5f5ffd5b5f5ffd5b5f601f19601f8301169050919050565b7f4e487b71000000000000000000000000000000000000000000000000000000005f52604160045260245ffd5b61083a826107f4565b810181811067ffffffffffffffff8211171561085957610858610804565b5b80604052505050565b5f61086b6107db565b90506108778282610831565b919050565b5f67ffffffffffffffff82111561089657610895610804565b5b61089f826107f4565b9050602081019050919050565b828183375f83830152505050565b5f6108cc6108c78461087c565b610862565b9050828152602081018484840111156108e8576108e76107f0565b5b6108f38482856108ac565b509392505050565b5f82601f83011261090f5761090e6107ec565b5b813561091f8482602086016108ba565b91505092915050565b5f6020828403121561093d5761093c6107e4565b5b5f82013567ffffffffffffffff81111561095a576109596107e8565b5b610966848285016108fb565b91505092915050565b5f8115159050919050565b6109838161096f565b82525050565b5f60208201905061099c5f83018461097a565b92915050565b5f73ffffffffffffffffffffffffffffffffffffffff82169050919050565b5f6109cb826109a2565b9050919050565b6109db816109c1565b82525050565b5f6020820190506109f45f8301846109d2565b92915050565b5f5ffd5b5f5ffd5b5f5f83601f840112610a1757610a166107ec565b5b8235905067ffffffffffffffff811115610a3457610a336109fa565b5b602083019150836020820283011115610a5057610a4f6109fe565b5b9250929050565b5f5f83601f840112610a6c57610a6b6107ec565b5b8235905067ffffffffffffffff811115610a8957610a886109fa565b5b602083019150836020820283011115610aa557610aa46109fe565b5b9250929050565b5f5f5f5f60408587031215610ac457610ac36107e4565b5b5f85013567ffffffffffffffff811115610ae157610ae06107e8565b5b610aed87828801610a02565b9450945050602085013567ffffffffffffffff811115610b1057610b0f6107e8565b5b610b1c87828801610a57565b925092505092959194509250565b5f819050919050565b610b3c81610b2a565b82525050565b5f602082019050610b555f830184610b33565b92915050565b610b64816109c1565b8114610b6e575f5ffd5b50565b5f81359050610b7f81610b5b565b92915050565b5f5f5f60608486031215610b9c57610b9b6107e4565b5b5f610ba986828701610b71565b9350506020610bba86828701610b71565b9250506040610bcb86828701610b71565b9150509250925092565b5f81519050919050565b5f82825260208201905092915050565b8281835e5f83830152505050565b5f610c0782610bd5565b610c118185610bdf565b9350610c21818560208601610bef565b610c2a816107f4565b840191505092915050565b5f6020820190508181035f830152610c4d8184610bfd565b905092915050565b5f60208284031215610c6a57610c696107e4565b5b5f610c7784828501610b71565b91505092915050565b5f819050919050565b5f610ca3610c9e610c99846109a2565b610c80565b6109a2565b9050919050565b5f610cb482610c89565b9050919050565b5f610cc582610caa565b9050919050565b610cd581610cbb565b82525050565b5f602082019050610cee5f830184610ccc565b92915050565b5f610cfe826109a2565b9050919050565b610d0e81610cf4565b8114610d18575f5ffd5b50565b5f81519050610d2981610d05565b92915050565b5f5f5f60608486031215610d4657610d456107e4565b5b5f610d5386828701610d1b565b9350506020610d6486828701610d1b565b9250506040610d7586828701610d1b565b9150509250925092565b5f604082019050610d925f8301856109d2565b610d9f60208301846109d2565b9392505050565b610daf8161096f565b8114610db9575f5ffd5b50565b5f81519050610dca81610da6565b92915050565b5f60208284031215610de557610de46107e4565b5b5f610df284828501610dbc565b91505092915050565b7f4e487b71000000000000000000000000000000000000000000000000000000005f52603260045260245ffd5b5f606082019050610e3b5f8301866109d2565b610e4860208301856109d2565b610e556040830184610b33565b949350505050565b5f606082019050610e705f8301866109d2565b610e7d60208301856109d2565b610e8a60408301846109d2565b94935050505056fea2646970667358221220a4b603162e479f8c52d6da4ad46c55294455f04127d548b665919668fe675d0e64736f6c634300081d0033","linkReferences":{}},"methodIdentifiers":{"MAX_AIRDROP_BATCH_SIZE()":"b277332d","airdrop(address[],uint256[])":"67243482","getInitData(address,address,address)":"c475dda9","initialize(bytes)":"439fab91","owner()":"8da5cb5b","renounceOwnership()":"715018a6","token()":"fc0c546a","transferOwnership(address)":"f2fde38b","treasury()":"61d027b3"},"id":13}