{"abi":[{"type":"constructor","inputs":[],"stateMutability":"nonpayable"},{"type":"function","name":"airdrop","inputs":[{"name":"receivers","type":"address[]","internalType":"address[]"},{"name":"tokenId","type":"uint256[]","internalType":"uint256[]"}],"outputs":[],"stateMutability":"nonpayable"},{"type":"function","name":"getInitData","inputs":[{"name":"_token","type":"address","internalType":"address"},{"name":"_treasury","type":"address","internalType":"address"},{"name":"_owner","type":"address","internalType":"address"}],"outputs":[{"name":"","type":"bytes","internalType":"bytes"}],"stateMutability":"pure"},{"type":"function","name":"initialize","inputs":[{"name":"_initData","type":"bytes","internalType":"bytes"}],"outputs":[{"name":"","type":"bool","internalType":"bool"}],"stateMutability":"nonpayable"},{"type":"function","name":"owner","inputs":[],"outputs":[{"name":"","type":"address","internalType":"address"}],"stateMutability":"view"},{"type":"function","name":"renounceOwnership","inputs":[],"outputs":[],"stateMutability":"nonpayable"},{"type":"function","name":"token","inputs":[],"outputs":[{"name":"","type":"address","internalType":"contract IERC721"}],"stateMutability":"view"},{"type":"function","name":"transferOwnership","inputs":[{"name":"newOwner","type":"address","internalType":"address"}],"outputs":[],"stateMutability":"nonpayable"},{"type":"function","name":"treasury","inputs":[],"outputs":[{"name":"","type":"address","internalType":"address"}],"stateMutability":"view"},{"type":"event","name":"OwnershipTransferred","inputs":[{"name":"previousOwner","type":"address","indexed":true,"internalType":"address"},{"name":"newOwner","type":"address","indexed":true,"internalType":"address"}],"anonymous":false},{"type":"error","name":"AlreadyInitialized","inputs":[]},{"type":"error","name":"ArraysLengthMismatch","inputs":[]},{"type":"error","name":"NeedToApproveTokens","inputs":[]},{"type":"error","name":"OwnableInvalidOwner","inputs":[{"name":"owner","type":"address","internalType":"address"}]},{"type":"error","name":"OwnableUnauthorizedAccount","inputs":[{"name":"account","type":"address","internalType":"address"}]}],"bytecode":{"object":"0x608060405234801561000f575f5ffd5b50335f73ffffffffffffffffffffffffffffffffffffffff168173ffffffffffffffffffffffffffffffffffffffff1603610081575f6040517f1e4fbdf70000000000000000000000000000000000000000000000000000000081526004016100789190610196565b60405180910390fd5b6100908161009660201b60201c565b506101af565b5f5f5f9054906101000a900473ffffffffffffffffffffffffffffffffffffffff169050815f5f6101000a81548173ffffffffffffffffffffffffffffffffffffffff021916908373ffffffffffffffffffffffffffffffffffffffff1602179055508173ffffffffffffffffffffffffffffffffffffffff168173ffffffffffffffffffffffffffffffffffffffff167f8be0079c531659141344cd1fd0a4f28419497f9722a3daafe3b4186f6b6457e060405160405180910390a35050565b5f73ffffffffffffffffffffffffffffffffffffffff82169050919050565b5f61018082610157565b9050919050565b61019081610176565b82525050565b5f6020820190506101a95f830184610187565b92915050565b610e3e806101bc5f395ff3fe608060405234801561000f575f5ffd5b5060043610610086575f3560e01c80638da5cb5b116100595780638da5cb5b146100fe578063c475dda91461011c578063f2fde38b1461014c578063fc0c546a1461016857610086565b8063439fab911461008a57806361d027b3146100ba57806367243482146100d8578063715018a6146100f4575b5f5ffd5b6100a4600480360381019061009f91906108b7565b610186565b6040516100b19190610918565b60405180910390f35b6100c261029b565b6040516100cf9190610970565b60405180910390f35b6100f260048036038101906100ed9190610a3b565b6102c0565b005b6100fc610509565b005b61010661051c565b6040516101139190610970565b60405180910390f35b61013660048036038101906101319190610ae3565b610543565b6040516101439190610b93565b60405180910390f35b61016660048036038101906101619190610bb3565b610572565b005b6101706105f6565b60405161017d9190610c39565b60405180910390f35b5f600260149054906101000a900460ff16156101ce576040517f0dc149f000000000000000000000000000000000000000000000000000000000815260040160405180910390fd5b5f5f5f848060200190518101906101e59190610c8d565b9250925092508260015f6101000a81548173ffffffffffffffffffffffffffffffffffffffff021916908373ffffffffffffffffffffffffffffffffffffffff1602179055508160025f6101000a81548173ffffffffffffffffffffffffffffffffffffffff021916908373ffffffffffffffffffffffffffffffffffffffff16021790555061027481610572565b6001600260146101000a81548160ff02191690831515021790555060019350505050919050565b60025f9054906101000a900473ffffffffffffffffffffffffffffffffffffffff1681565b6102c861061b565b818190508484905014610307576040517ffc23596000000000000000000000000000000000000000000000000000000000815260040160405180910390fd5b60015f9054906101000a900473ffffffffffffffffffffffffffffffffffffffff1673ffffffffffffffffffffffffffffffffffffffff1663e985e9c560025f9054906101000a900473ffffffffffffffffffffffffffffffffffffffff16306040518363ffffffff1660e01b8152600401610384929190610cdd565b602060405180830381865afa15801561039f573d5f5f3e3d5ffd5b505050506040513d601f19601f820116820180604052508101906103c39190610d2e565b6103f9576040517f9bacfd9a00000000000000000000000000000000000000000000000000000000815260040160405180910390fd5b5f5f90505b828290508110156105025760015f9054906101000a900473ffffffffffffffffffffffffffffffffffffffff1673ffffffffffffffffffffffffffffffffffffffff166342842e0e60025f9054906101000a900473ffffffffffffffffffffffffffffffffffffffff1687878581811061047b5761047a610d59565b5b90506020020160208101906104909190610bb3565b8686868181106104a3576104a2610d59565b5b905060200201356040518463ffffffff1660e01b81526004016104c893929190610d9e565b5f604051808303815f87803b1580156104df575f5ffd5b505af11580156104f1573d5f5f3e3d5ffd5b5050505080806001019150506103fe565b5050505050565b61051161061b565b61051a5f6106a2565b565b5f5f5f9054906101000a900473ffffffffffffffffffffffffffffffffffffffff16905090565b606083838360405160200161055a93929190610dd3565b60405160208183030381529060405290509392505050565b61057a61061b565b5f73ffffffffffffffffffffffffffffffffffffffff168173ffffffffffffffffffffffffffffffffffffffff16036105ea575f6040517f1e4fbdf70000000000000000000000000000000000000000000000000000000081526004016105e19190610970565b60405180910390fd5b6105f3816106a2565b50565b60015f9054906101000a900473ffffffffffffffffffffffffffffffffffffffff1681565b610623610763565b73ffffffffffffffffffffffffffffffffffffffff1661064161051c565b73ffffffffffffffffffffffffffffffffffffffff16146106a057610664610763565b6040517f118cdaa70000000000000000000000000000000000000000000000000000000081526004016106979190610970565b60405180910390fd5b565b5f5f5f9054906101000a900473ffffffffffffffffffffffffffffffffffffffff169050815f5f6101000a81548173ffffffffffffffffffffffffffffffffffffffff021916908373ffffffffffffffffffffffffffffffffffffffff1602179055508173ffffffffffffffffffffffffffffffffffffffff168173ffffffffffffffffffffffffffffffffffffffff167f8be0079c531659141344cd1fd0a4f28419497f9722a3daafe3b4186f6b6457e060405160405180910390a35050565b5f33905090565b5f604051905090565b5f5ffd5b5f5ffd5b5f5ffd5b5f5ffd5b5f601f19601f8301169050919050565b7f4e487b71000000000000000000000000000000000000000000000000000000005f52604160045260245ffd5b6107c982610783565b810181811067ffffffffffffffff821117156107e8576107e7610793565b5b80604052505050565b5f6107fa61076a565b905061080682826107c0565b919050565b5f67ffffffffffffffff82111561082557610824610793565b5b61082e82610783565b9050602081019050919050565b828183375f83830152505050565b5f61085b6108568461080b565b6107f1565b9050828152602081018484840111156108775761087661077f565b5b61088284828561083b565b509392505050565b5f82601f83011261089e5761089d61077b565b5b81356108ae848260208601610849565b91505092915050565b5f602082840312156108cc576108cb610773565b5b5f82013567ffffffffffffffff8111156108e9576108e8610777565b5b6108f58482850161088a565b91505092915050565b5f8115159050919050565b610912816108fe565b82525050565b5f60208201905061092b5f830184610909565b92915050565b5f73ffffffffffffffffffffffffffffffffffffffff82169050919050565b5f61095a82610931565b9050919050565b61096a81610950565b82525050565b5f6020820190506109835f830184610961565b92915050565b5f5ffd5b5f5ffd5b5f5f83601f8401126109a6576109a561077b565b5b8235905067ffffffffffffffff8111156109c3576109c2610989565b5b6020830191508360208202830111156109df576109de61098d565b5b9250929050565b5f5f83601f8401126109fb576109fa61077b565b5b8235905067ffffffffffffffff811115610a1857610a17610989565b5b602083019150836020820283011115610a3457610a3361098d565b5b9250929050565b5f5f5f5f60408587031215610a5357610a52610773565b5b5f85013567ffffffffffffffff811115610a7057610a6f610777565b5b610a7c87828801610991565b9450945050602085013567ffffffffffffffff811115610a9f57610a9e610777565b5b610aab878288016109e6565b925092505092959194509250565b610ac281610950565b8114610acc575f5ffd5b50565b5f81359050610add81610ab9565b92915050565b5f5f5f60608486031215610afa57610af9610773565b5b5f610b0786828701610acf565b9350506020610b1886828701610acf565b9250506040610b2986828701610acf565b9150509250925092565b5f81519050919050565b5f82825260208201905092915050565b8281835e5f83830152505050565b5f610b6582610b33565b610b6f8185610b3d565b9350610b7f818560208601610b4d565b610b8881610783565b840191505092915050565b5f6020820190508181035f830152610bab8184610b5b565b905092915050565b5f60208284031215610bc857610bc7610773565b5b5f610bd584828501610acf565b91505092915050565b5f819050919050565b5f610c01610bfc610bf784610931565b610bde565b610931565b9050919050565b5f610c1282610be7565b9050919050565b5f610c2382610c08565b9050919050565b610c3381610c19565b82525050565b5f602082019050610c4c5f830184610c2a565b92915050565b5f610c5c82610931565b9050919050565b610c6c81610c52565b8114610c76575f5ffd5b50565b5f81519050610c8781610c63565b92915050565b5f5f5f60608486031215610ca457610ca3610773565b5b5f610cb186828701610c79565b9350506020610cc286828701610c79565b9250506040610cd386828701610c79565b9150509250925092565b5f604082019050610cf05f830185610961565b610cfd6020830184610961565b9392505050565b610d0d816108fe565b8114610d17575f5ffd5b50565b5f81519050610d2881610d04565b92915050565b5f60208284031215610d4357610d42610773565b5b5f610d5084828501610d1a565b91505092915050565b7f4e487b71000000000000000000000000000000000000000000000000000000005f52603260045260245ffd5b5f819050919050565b610d9881610d86565b82525050565b5f606082019050610db15f830186610961565b610dbe6020830185610961565b610dcb6040830184610d8f565b949350505050565b5f606082019050610de65f830186610961565b610df36020830185610961565b610e006040830184610961565b94935050505056fea2646970667358221220b076adc7a9004a7e14088c5648477e10fc587f051680b822a2051442733d1ee264736f6c634300081d0033","linkReferences":{}},"methodIdentifiers":{"airdrop(address[],uint256[])":"67243482","getInitData(address,address,address)":"c475dda9","initialize(bytes)":"439fab91","owner()":"8da5cb5b","renounceOwnership()":"715018a6","token()":"fc0c546a","transferOwnership(address)":"f2fde38b","treasury()":"61d027b3"},"id":23}